:020000040800F2
:1044000000500020AD4D0008FD4D0008FD4D000896
:10441000FD4D0008FD4D0008FD4D000800000000A6
:10442000000000000000000000000000FD4D00083A
:10443000FD4D000800000000FD4D0008FD4D000886
:10444000FD4D0008FD4D0008FD4D0008FD4D000824
:10445000FD4D0008FD4D0008FD4D0008FD4D000814
:10446000FD4D0008FD4D0008FD4D0008FD4D000804
:10447000FD4D0008FD4D0008FD4D0008FD4D0008F4
:10448000FD4D0008FD4D0008FD4D0008FD4D0008E4
:10449000FD4D0008FD4D0008FD4D0008FD4D0008D4
:1044A000FD4D0008FD4D0008FD4D0008FD4D0008C4
:1044B000FD4D0008FD4D0008FD4D0008FD4D0008B4
:1044C000FD4D0008FD4D0008FD4D0008FD4D0008A4
:1044D000FD4D0008FD4D0008FD4D0008FD4D000894
:1044E000FD4D0008FD4D000800000000FD4D0008D6
:1044F000FD4D0008FD4D0008FD4D0008FD4D000874
:10450000FD4D0008FD4D0008FD4D0008FD4D000863
:10451000FD4D0008FD4D0008FD4D0008FD4D000853
:10452000FD4D0008FD4D0008FD4D0008FD4D000843
:1045300010B5054C237833B9044B13B10448AFF3DD
:1045400000800123237010BD2C000020000000001B
:10455000484E000808B5034B1BB103490348AFF3AD
:10456000008008BD0000000030000020484E000818
:1045700080B483B000AF0346FB800B467B711346CB
:104580003B71FEE780B483B000AF0023FB7159E0BC
:10459000FB79314A12F81330022B34D0022B4EDC57
:1045A000002B02D0012B17D049E0FB792A4A5B008F
:1045B00013445B78012B04D1284B4FF6FF72DA606D
:1045C00038E0FB79244A5B0013445B78002B31D13F
:1045D000224B0022DA602DE0FB791F4A5B00134476
:1045E0005B78012B04D11E4B4FF6FF72DA6023E09B
:1045F000FB79194A5B0013445B78002B1CD1184BE4
:104600000022DA6018E0FB79134A5B0013445B7800
:10461000012B04D1134B4FF6FF72DA600EE0FB79E9
:104620000D4A5B0013445B78002B07D10D4B002231
:10463000DA6003E000BF02E000BF00E000BFFB79EA
:104640000133FB71FB79022BA2D900BF00BF0C37ED
:10465000BD4680BC704700BF00000020000801403C
:10466000000C01400010014080B483B000AF03464D
:104670000A46FB711346BB71FB792E2B10D8FB79D0
:104680000A49BA79CA54FB79094A012102F8131080
:10469000FB79074A5B00134402225A70032300E0AF
:1046A000022318460C37BD4680BC704748000020E6
:1046B0007800002090B583B000AF0023FB7122E0AA
:1046C000FB79504A12F81330002B19D0FB794D4A70
:1046D0005B0013445B78022B08D1FB794A4AD25C19
:1046E000FB791946494800F0AEF809E0FC79FB79FE
:1046F0001946464800F090F803461A46424B1A55B0
:10470000FB790133FB71FB790C2BD9D93D4B9B7F96
:10471000002B13D03B4BDB7F022B07D13A4BDB7BCB
:104720001A460F21394800F08EF807E00F2137486C
:1047300000F072F803461A46334BDA731023FB710C
:1047400028E0FB792F4A12F81330002B1FD0FB7999
:104750002C4A5B0013445B78022B0BD1FB7923F0CE
:104760001003D9B2FB79284AD35C1A46284800F0D6
:104770006AF80CE0FB7923F01003DBB2FC791946F0
:10478000234800F049F803461A461F4B1A55FB7997
:104790000133FB71FB791F2BD3D92D23FB7128E04B
:1047A000FB79184A12F81330002B1FD0FB79154AF9
:1047B0005B0013445B78022B0BD1FB7923F02003C1
:1047C000D9B2FB79104AD35C1A46124800F03BF884
:1047D0000CE0FB7923F02003DBB2FC7919460D488D
:1047E00000F01AF803461A46074B1A55FB790133B5
:1047F000FB71FB792E2BD3D900BF00BF0C37BD4610
:1048000090BD00BF78000020480000200008014053
:10481000000C01400010014080B485B000AF78600A
:104820000B46FB707B689B68FB60FB78FA6822FA9A
:1048300003F303F00103FB60FB68DBB21846143797
:10484000BD4680BC704780B584B000AF78600B4631
:10485000FB701346BB70FB78012202FA03F3FB6086
:10486000BB78012B03D17B68FA681A610BE0BB7837
:10487000002B03D17B68FA685A6104E00A22012107
:104880007820FFF775FE00BF1037BD4680BD0000E1
:1048900080B584B000AF304B1B68002B04D11022D0
:1048A00001216520FFF764FE2B4B1B681B682A4A19
:1048B0001268527DD2001343BB60284ABB68136064
:1048C000254B1B681B685B007B604FF47A73FB8190
:1048D00002E0FB89013BFB81204B1A687B68134097
:1048E000002B02D0FB89002BF3D0FB89002B04D1D5
:1048F000122201216520FFF73BFE184B1B68174A67
:1049000023F480231360154B1B68144A23F40023FF
:104910001360114B1B685A680F4B1B689B6813434D
:104920000D4A1268928913430B4A1268D2891343C5
:10493000094A1268128A1343074A1268528A1343BB
:10494000054A1268127D13433B60044A3B6853607A
:1049500000BF1037BD4680BD20000020001002407F
:1049600080B483B000AF78607B68B3F1004F0BD99F
:104970007B68084A934207D8074B1A687B68134341
:10498000054A1360032300E0012318460C37BD4697
:1049900080BC704700002080DC00002080B500AFA4
:1049A0000E4B1B68002B04D00C4B1B68184600F004
:1049B0001BF80B4B1B68002B04D0094B1B681846D7
:1049C00000F012F8074B1B68002B04D0054B1B6846
:1049D000184600F009F800BF80BD00BFD8000020D5
:1049E000DC000020E000002080B582B000AF7860DD
:1049F0007B68002B0AD07B68B3F1005F06D81B4BA5
:104A0000DA691A497B681343CB612BE07B68B3F109
:104A1000004F0ED97B68164A93420AD87B6823F070
:104A200000437B60114B9A6910497B6813438B618B
:104A300018E07B68B3F1804F0ED97B680D4A934232
:104A40000AD87B6823F080437B60084B5A6907498A
:104A50007B6813434B6105E00C2208216520FFF7BA
:104A600087FD00BF00BF0837BD4680BD0010024073
:104A7000000020800004004080B483B000AF002319
:104A8000FB718FE0FB794C4A12F81330022B6DD08A
:104A9000022B00F38480002B02D0012B33D07EE068
:104AA000464B00221A60454B00225A600023BB711E
:104AB0000FE0424B1B68404A52781146BA79920087
:104AC00001FA02F211463D4A0B431360BB790133F0
:104AD000BB71BB79072BECD900237B710FE0374BFF
:104AE0005B68354A527811467A79920001FA02F2EF
:104AF0001146324A0B4353607B7901337B717B79DA
:104B0000072BECD94BE02E4B00221A602C4B0022D5
:104B10005A6000233B710FE0294B1B68264AD2786C
:104B200011463A79920001FA02F21146244A0B43E7
:104B300013603B7901333B713B79072BECD90023A0
:104B4000FB700FE01E4B5B681B4AD2781146FA7867
:104B5000920001FA02F21146194A0B435360FB78A6
:104B60000133FB70FB78072BECD918E0154B0022C2
:104B70001A60144B00225A60124B5B680E4A52793D
:104B8000120511460F4A0B4353600E4B5B680A4AED
:104B90005279120611460B4A0B43536000BFFB7952
:104BA0000133FB71FB79022B7FF66CAF00BF00BFB6
:104BB0000C37BD4680BC704724000020000801402F
:104BC000000C01400010014080B483B000AF0346E8
:104BD0000A46FB711346BB71FB792E2B09D8FB7972
:104BE0000749BA79CA54FB79064A0121D1540323F3
:104BF00000E0022318460C37BD4680BC704700BF5A
:104C0000E40000201401002080B582B000AF002332
:104C1000FB710FE0FB79234AD35C002B07D0FB79B3
:104C2000214AD25CFB791946204800F045F8FB790F
:104C30000133FB71FB790F2BECD912E0FB79194A98
:104C4000D35C002B0AD0FB7923F01003D9B2FB7997
:104C5000154AD35C1A46164800F02EF8FB7901334A
:104C6000FB71FB791F2BE9D90E4B93F82D30002BEC
:104C700007D00D4B93F82D301A462D210D4800F02A
:104C80001BF8084B93F82E30002B07D0064B93F8F7
:104C90002D301A462E21074800F00EF800BF0837C5
:104CA000BD4680BD14010020E40000200008014042
:104CB000000C01400010014080B483B000AF786068
:104CC0000B46FB701346BB70FB78072B15D87B682F
:104CD0001B68FA7892000F2101FA02F2D2431A40BF
:104CE0007B681A607B681B68B978FA78920001FAD1
:104CF00002F21A437B681A6016E07B685B68FA78F8
:104D0000083A92000F2101FA02F2D2431A407B685E
:104D10005A607B685B68B978FA78083A920001FAC1
:104D200002F21A437B685A6000BF0C37BD4680BC54
:104D30007047000080B582B000AFFFF7A9FD1948A9
:104D4000FFF70EFEFFF798FEFFF71CFC02212D2057
:104D5000FFF73AFFFFF722FEFFF756FFFFF7AAFC27
:104D600001212D20FFF780FCFFF7A4FC00237B60CE
:104D700002E07B6801337B607B680B4A9342F8D981
:104D800000212D20FFF770FCFFF794FC00233B600F
:104D900002E03B6801333B603B68034A9342F8D929
:104DA000DEE700BF10000080AFAD01000D48854672
:104DB000AFF300800C480D490D4A002302E0D4589F
:104DC000C4500433C4188C42F9D30A4A0A4C002355
:104DD00001E013600432A242FBD300F011F8FFF7A8
:104DE000A9FFFEE700500020000000202C0000205A
:104DF000684E00082C00002044010020FEE700005F
:104E000070B500260C4D0D4C641BA410A64209D1B0
:104E100000F01AF800260A4D0A4C641BA410A642A2
:104E200005D170BD55F8043B98470136EEE755F8BB
:104E3000043B98470136F2E7604E0008604E0008D8
:104E4000604E0008644E0008F8B500BFF8BC08BC0E
:104E50009E467047F8B500BFF8BC08BC9E46704738
:044E600055450008AC
:044E640031450008CC
:104E68000000010002000000000001000000000036
:104E78000000000000000000000000000100000029
:0C4E8800080000200002010202020000ED
:0400000508004DADF5
:00000001FF
