:020000040800F2
:10A0000000500020CDA500086DA3000873A3000830
:10A0100079A300087FA3000885A3000800000000C2
:10A020000000000000000000000000008BA30008FA
:10A0300097A3000800000000A3A30008AFA3000836
:10A0400015A6000815A6000815A6000815A6000804
:10A0500015A60008BBA3000815A6000815A6000851
:10A0600015A6000815A6000815A6000815A60008E4
:10A0700015A6000815A6000815A6000815A60008D4
:10A0800015A6000815A6000815A6000815A60008C4
:10A0900015A6000815A6000815A6000815A60008B4
:10A0A00015A6000815A6000815A6000815A60008A4
:10A0B00015A6000815A6000815A6000815A6000894
:10A0C00015A6000815A6000815A6000815A6000884
:10A0D00015A60008C9A30008DDA3000815A60008FE
:10A0E00015A6000815A6000815A600080000000027
:10A0F0000000000000000000000000000000000060
:0CA1000000000000000000005FF808F103
:10A10C0010B5054C237833B9044B13B10448AFF3A5
:10A11C0000800123237010BD0C0000200000000003
:10A12C005CC0000808B5034B1BB103490348AFF3EF
:10A13C00008008BD00000000100000205CC000087A
:10A14C0080B588B000AF07F1100300221A605A6086
:10A15C009A60DA601E4B9B691D4A43F010039361B1
:10A16C001B4B9B6903F01003FB60FB68184B9B694E
:10A17C00174A43F020039361154B9B6903F02003AE
:10A18C00BB60BB68124B9B69114A43F0040393619B
:10A19C000F4B9B6903F004037B607B6800224FF438
:10A1AC0000510C4800F0D8FD4FF400533B610123E3
:10A1BC007B610023BB610223FB6107F1100319468D
:10A1CC00044800F045FC00BF2037BD4680BD00BFF1
:10A1DC00001002400010014080B483B000AF7860E2
:10A1EC00074B1B78AA2B03D1064BAA221A7002E04C
:10A1FC00044BEE221A7000BF0C37BD4680BC704772
:10A20C00280000202900002080B582B000AF00F0AB
:10A21C00FDF900F02BF8FFF793FF00F0E9F800F0E0
:10A22C0011F901224FF400510E4800F095FD002366
:10A23C007B6002E07B6801337B607B680A4A934257
:10A24C00F8DD00224FF40051064800F085FD002394
:10A25C007B6002E07B6801337B607B68024A93423F
:10A26C00F8DDDEE7001001403F420F0080B590B0F2
:10A27C0000AF07F1180328220021184601F0BCFE9C
:10A28C003B1D00221A605A609A60DA601A61012341
:10A29C00BB614FF48033FB6100237B6307F1180330
:10A2AC00184600F071FD0346002B01D000F018F8A1
:10A2BC000F237B600123BB600023FB6000233B6109
:10A2CC0000237B613B1D0021184600F0DFFF034695
:10A2DC00002B01D000F004F800BF4037BD4680BD14
:10A2EC0080B400AF72B600BFFEE7000080B584B04A
:10A2FC0000AF194B9B69184A43F001039361164B4D
:10A30C009B6903F00103BB60BB68134BDB69124A0A
:10A31C0043F08053D361104BDB6903F080537B60B7
:10A32C007B6800220021052000F0A9FA052000F02E
:10A33C00C2FA0A4B5B68FB60FB6823F0E063FB60CE
:10A34C00FB6843F00073FB60044AFB68536000BF7A
:10A35C001037BD4680BD00BF001002400000014018
:10A36C0080B400AFFEE780B400AFFEE780B400AF6E
:10A37C00FEE780B400AFFEE780B400AFFEE780B428
:10A38C0000AF00BFBD4680BC704780B400AF00BFBB
:10A39C00BD4680BC704780B400AF00BFBD4680BCDA
:10A3AC00704780B500AF00F077F900BF80BD80B476
:10A3BC0000AF00BFBD4680BC7047000080B500AF49
:10A3CC00024801F041F900BF80BD00BF2C00002005
:10A3DC0080B500AF024801F037F900BF80BD00BF67
:10A3EC007400002080B400AF00BFBD4680BC704735
:10A3FC0080B500AF114B124A1A60104B4FF4E1328A
:10A40C005A600E4B00229A600C4B0022DA600B4B08
:10A41C0000221A61094B0C225A61084B00229A61E6
:10A42C00064B0022DA61054801F0BEF80346002B0A
:10A43C0001D0FFF755FF00BF80BD00BF2C000020EE
:10A44C000038014080B500AF114B124A1A60104B16
:10A45C004FF4E1325A600E4B00229A600C4B0022F2
:10A46C00DA600B4B00221A61094B0C225A61084B23
:10A47C0000229A61064B0022DA61054801F094F83B
:10A48C000346002B01D0FFF72BFF00BF80BD00BFA0
:10A49C00740000200044004080B58AB000AF7860A2
:10A4AC0007F1180300221A605A609A60DA607B6820
:10A4BC001B683F4A93423AD13E4B9B693D4A43F459
:10A4CC00804393613B4B9B6903F480437B617B69C5
:10A4DC00384B9B69374A43F004039361354B9B69B6
:10A4EC0003F004033B613B694FF40073BB6102232F
:10A4FC00FB6103237B6207F1180319462E4800F019
:10A50C00A7FA4FF48063BB610023FB6100233B621D
:10A51C0007F118031946284800F09AFA0022002186
:10A52C00252000F0ACF9252000F0C5F93CE07B6853
:10A53C001B68224A934237D11E4BDB691D4A43F4F8
:10A54C000033D3611B4BDB6903F40033FB60FB6806
:10A55C00184B9B69174A43F004039361154B9B6995
:10A56C0003F00403BB60BB680423BB610223FB61E3
:10A57C0003237B6207F1180319460F4800F068FAB1
:10A58C000823BB610023FB6100233B6207F1180326
:10A59C001946094800F05CFA00220021262000F040
:10A5AC006EF9262000F087F900BF2837BD4680BD24
:10A5BC0000380140001002400008014000440040F7
:10A5CC00FFF710FF0B480C490C4A002302E0D4584B
:10A5DC00C4500433C4188C42F9D3094A094C0023E3
:10A5EC0001E013600432A242FBD301F00DFDFFF732
:10A5FC000BFE7047000000200C000020A8C00008D3
:10A60C000C000020C0000020FEE7000080B500AF69
:10A61C00084B1B68074A43F010031360032000F03B
:10A62C0023F90F2000F008F8FFF760FE002318460E
:10A63C0080BD00BF0020024080B582B000AF7860C2
:10A64C00124B1A68124B1B7819464FF47A73B3FBF2
:10A65C00F1F3B2FBF3F3184600F03BF90346002B81
:10A66C0001D001230EE07B680F2B0AD800227968F9
:10A67C004FF0FF3000F003F9064A7B6813600023AB
:10A68C0000E0012318460837BD4680BD00000020BD
:10A69C00080000200400002080B400AF054B1B789C
:10A6AC001A46054B1B681344034A136000BFBD4692
:10A6BC0080BC704708000020BC00002080B400AFB4
:10A6CC00024B1B681846BD4680BC7047BC0000207E
:10A6DC0080B485B000AF78607B6803F00703FB6043
:10A6EC000C4BDB68BB60BA684FF6FF031340BB60D2
:10A6FC00FB681A02BB68134343F0BF6343F4003397
:10A70C00BB60044ABB68D36000BF1437BD4680BC35
:10A71C00704700BF00ED00E080B400AF044BDB6875
:10A72C001B0A03F007031846BD4680BC704700BFE8
:10A73C0000ED00E080B483B000AF0346FB7197F9E5
:10A74C000730002B0BDBFB7903F01F02064997F94E
:10A75C0007305B09012000FA02F241F8232000BF08
:10A76C000C37BD4680BC704700E100E080B483B07C
:10A77C0000AF03463960FB7197F90730002B0ADBF9
:10A78C003B68DAB20C4997F907301201D2B20B448C
:10A79C0083F800230AE03B68DAB20849FB7903F03E
:10A7AC000F03043B1201D2B20B441A7600BF0C37D4
:10A7BC00BD4680BC704700BF00E100E000ED00E04A
:10A7CC0080B489B000AFF860B9607A60FB6803F0C0
:10A7DC000703FB61FB69C3F10703042B28BF0423A8
:10A7EC00BB61FB690433062B02D9FB69033B00E018
:10A7FC0000237B614FF0FF32BB6902FA03F3DA43AB
:10A80C00BB681A407B699A404FF0FF317B6901FAB3
:10A81C0003F3D9437B680B40134318462437BD46DA
:10A82C0080BC704780B582B000AF78607B68013B1C
:10A83C00B3F1807F01D301230FE00A4A7B68013B0F
:10A84C0053600F214FF0FF30FFF790FF054B0022B4
:10A85C009A60044B07221A60002318460837BD463D
:10A86C0080BD00BF10E000E080B582B000AF786022
:10A87C007868FFF72DFF00BF0837BD4680BD80B557
:10A88C0086B000AF0346B9607A60FB7300237B612E
:10A89C00FFF742FF78617A68B9687869FFF790FF33
:10A8AC00024697F90F3011461846FFF75FFF00BFBD
:10A8BC001837BD4680BD80B582B000AF0346FB7132
:10A8CC0097F907301846FFF735FF00BF0837BD462C
:10A8DC0080BD80B582B000AF78607868FFF7A2FFCA
:10A8EC00034618460837BD4680BD80B485B000AF1E
:10A8FC0078600023FB737B6893F82130DBB2022B6A
:10A90C0008D07B6804229A637B68002283F820209D
:10A91C00012320E07B681B681A687B681B6822F0A7
:10A92C000E021A607B681B681A687B681B6822F031
:10A93C0001021A607B681A6C7B68DB6B012101FADF
:10A94C0002F25A607B68012283F821207B68002286
:10A95C0083F82020FB7B18461437BD4680BC70471B
:10A96C0080B584B000AF78600023FB737B6893F8EC
:10A97C002130DBB2022B05D07B6804229A630123C1
:10A98C00FB7351E07B681B681A687B681B6822F0BC
:10A99C000E021A607B681B681A687B681B6822F0C1
:10A9AC0001021A607B681B68224A934229D07B689B
:10A9BC001B68214A934222D07B681B681F4A934232
:10A9CC001AD07B681B681E4A934212D07B681B68A6
:10A9DC001C4A93420AD07B681B681B4A934202D1E3
:10A9EC004FF480130EE04FF080730BE04FF4803384
:10A9FC0008E04FF4805305E04FF4807302E010231D
:10AA0C0000E00123114A53607B68012283F8212066
:10AA1C007B68002283F820207B685B6B002B03D0C3
:10AA2C007B685B6B78689847FB7B18461037BD4694
:10AA3C0080BD00BF080002401C00024030000240F4
:10AA4C0044000240580002406C00024000000240EA
:10AA5C0080B48BB000AF7860396000237B62002338
:10AA6C003B6269E101227B6A02FA03F3FB613B68FA
:10AA7C001B68FA691340BB61BA69FB699A4240F0E2
:10AA8C0058813B685B689A4A93425ED0984A9342DD
:10AA9C0075D8984A934258D0964A93426FD8964AA2
:10AAAC00934252D0944A934269D8944A93424CD0E0
:10AABC00924A934263D8924A934246D0904A934228
:10AACC005DD8122B2AD8122B59D801A252F823F098
:10AADC0057AB000831AB000843AB000885AB00084E
:10AAEC008BAB00088BAB00088BAB00088BAB000862
:10AAFC008BAB00088BAB00088BAB00088BAB000852
:10AB0C008BAB00088BAB00088BAB00088BAB000841
:10AB1C008BAB000839AB00084DAB0008794A934267
:10AB2C0013D02CE03B68DB683B6229E03B68DB68B8
:10AB3C0004333B6224E03B68DB6808333B621FE074
:10AB4C003B68DB680C333B621AE03B689B68002B6C
:10AB5C0002D104233B6213E03B689B68012B05D1B7
:10AB6C0008233B627B68FA691A6109E008233B629F
:10AB7C007B68FA695A6103E000233B6200E000BF86
:10AB8C00BB69FF2B01D87B6801E07B6804337B61D8
:10AB9C00BB69FF2B02D87B6A9B0002E07B6A083BF7
:10ABAC009B003B617B691A680F213B6901FA03F337
:10ABBC00DB431A40396A3B6901FA03F31A437B6998
:10ABCC001A603B685B6803F08053002B00F0B18087
:10ABDC004D4B9B694C4A43F0010393614A4B9B6973
:10ABEC0003F00103BB60BB68484A7B6A9B080233D5
:10ABFC0052F82330FB607B6A03F003039B000F22A7
:10AC0C0002FA03F3DB43FA681340FB607B68404AAB
:10AC1C00934213D07B683F4A93420DD07B683E4AE7
:10AC2C00934207D07B683D4A934201D1032306E04F
:10AC3C00042304E0022302E0012300E000237A6AEB
:10AC4C0002F0030292009340FA681343FB602F4911
:10AC5C007B6A9B080233FA6841F823203B685B68E7
:10AC6C0003F48013002B06D02D4B9A682C49BB693A
:10AC7C0013438B6006E02A4B9A68BB69DB43284977
:10AC8C0013408B603B685B6803F40013002B06D009
:10AC9C00234BDA682249BB691343CB6006E0204B97
:10ACAC00DA68BB69DB431E491340CB603B685B68C9
:10ACBC0003F40033002B06D0194B5A681849BB69B2
:10ACCC0013434B6006E0164B5A68BB69DB431449CF
:10ACDC0013404B603B685B6803F48033002B21D03E
:10ACEC000F4B1A680E49BB6913430B6021E000BF80
:10ACFC000000321000003110000022100000211062
:10AD0C000000121000001110001002400000014061
:10AD1C0000080140000C01400010014000140140EB
:10AD2C00000401400B4B1A68BB69DB430949134013
:10AD3C000B607B6A01337B623B681A687B6A22FA80
:10AD4C0003F3002B7FF48EAE00BF00BF2C37BD4643
:10AD5C0080BC70470004014080B483B000AF7860C1
:10AD6C000B467B8013467B707B78002B03D07A8854
:10AD7C007B681A6103E07B881A047B681A6100BF48
:10AD8C000C37BD4680BC704780B586B000AF78608C
:10AD9C007B68002B01D1012372E27B681B6803F0F6
:10ADAC000103002B00F08780924B5B6803F00C03CF
:10ADBC00042B0CD08F4B5B6803F00C03082B12D1C7
:10ADCC008C4B5B6803F48033B3F5803F0BD1894B1C
:10ADDC001B6803F40033002B6CD07B685B68002B82
:10ADEC0068D101234CE27B685B68B3F5803F06D1E8
:10ADFC00804B1B687F4A43F4803313602EE07B68E2
:10AE0C005B68002B0CD17B4B1B687A4A23F4803394
:10AE1C001360784B1B68774A23F4802313601DE082
:10AE2C007B685B68B3F5A02F0CD1724B1B68714A21
:10AE3C0043F4802313606F4B1B686E4A43F48033DA
:10AE4C0013600BE06B4B1B686A4A23F4803313606E
:10AE5C00684B1B68674A23F4802313607B685B682C
:10AE6C00002B13D0FFF72AFC386108E0FFF726FC13
:10AE7C0002463B69D31A642B01D9032300E25D4BD4
:10AE8C001B6803F40033002BF0D014E0FFF716FC22
:10AE9C00386108E0FFF712FC02463B69D31A642BB9
:10AEAC0001D90323ECE1534B1B6803F40033002B53
:10AEBC00F0D100E000BF7B681B6803F00203002B9D
:10AECC0063D04C4B5B6803F00C03002B0BD0494B4D
:10AEDC005B6803F00C03082B1CD1464B5B6803F436
:10AEEC008033002B16D1434B1B6803F00203002B5D
:10AEFC0005D07B681B69012B01D00123C0E13D4BC0
:10AF0C001B6823F0F8027B685B69DB00394913434B
:10AF1C000B603AE07B681B69002B20D0364B01227A
:10AF2C001A60FFF7CBFB386108E0FFF7C7FB02465E
:10AF3C003B69D31A022B01D90323A1E12D4B1B68CA
:10AF4C0003F00203002BF0D02A4B1B6823F0F8020D
:10AF5C007B685B69DB00274913430B6015E0264BCC
:10AF6C0000221A60FFF7AAFB386108E0FFF7A6FB86
:10AF7C0002463B69D31A022B01D9032380E11D4BF6
:10AF8C001B6803F00203002BF0D17B681B6803F0F5
:10AF9C000803002B3AD07B689B69002B19D0174B08
:10AFAC0001221A60FFF78AFB386108E0FFF786FB85
:10AFBC0002463B69D31A022B01D9032360E10D4BE6
:10AFCC005B6A03F00203002BF0D0012000F0CEFAF4
:10AFDC001CE00A4B00221A60FFF770FB38610FE08F
:10AFEC00FFF76CFB02463B69D31A022B08D90323EB
:10AFFC0046E100BF00100240000042428004424281
:10B00C00924B5B6A03F00203002BE9D17B681B684F
:10B01C0003F00403002B00F0A6800023FB758B4B80
:10B02C00DB6903F08053002B0DD1884BDB69874A19
:10B03C0043F08053D361854BDB6903F08053BB60D5
:10B04C00BB680123FB75824B1B6803F48073002BD8
:10B05C0018D17F4B1B687E4A43F480731360FFF753
:10B06C002DFB386108E0FFF729FB02463B69D31A38
:10B07C00642B01D9032303E1754B1B6803F4807324
:10B08C00002BF0D07B68DB68012B06D16F4B1B6A61
:10B09C006E4A43F0010313622DE07B68DB68002BE2
:10B0AC000CD16A4B1B6A694A23F001031362674B8C
:10B0BC001B6A664A23F0040313621CE07B68DB689E
:10B0CC00052B0CD1614B1B6A604A43F004031362DD
:10B0DC005E4B1B6A5D4A43F0010313620BE05B4B52
:10B0EC001B6A5A4A23F001031362584B1B6A574AD6
:10B0FC0023F0040313627B68DB68002B15D0FFF789
:10B10C00DDFA38610AE0FFF7D9FA02463B69D31A37
:10B11C0041F28832934201D90323B1E04B4B1B6AB5
:10B12C0003F00203002BEED014E0FFF7C7FA3861EE
:10B13C000AE0FFF7C3FA02463B69D31A41F28832A0
:10B14C00934201D903239BE0404B1B6A03F002039B
:10B15C00002BEED1FB7D012B05D13C4BDB693B4A2F
:10B16C0023F08053D3617B68DB69002B00F0878070
:10B17C00364B5B6803F00C03082B61D07B68DB69F2
:10B18C00022B46D1334B00221A60FFF797FA386135
:10B19C0008E0FFF793FA02463B69D31A022B01D958
:10B1AC0003236DE0294B1B6803F00073002BF0D1D7
:10B1BC007B681B6AB3F5803F08D1244B5B6823F492
:10B1CC0000327B689B68214913434B601F4B5B68C3
:10B1DC0023F474127B68196A7B685B6A0B431B4906
:10B1EC0013434B601B4B01221A60FFF767FA38615F
:10B1FC0008E0FFF763FA02463B69D31A022B01D928
:10B20C0003233DE0114B1B6803F00073002BF0D0BF
:10B21C0035E0104B00221A60FFF750FA386108E055
:10B22C00FFF74CFA02463B69D31A022B01D90323D0
:10B23C0026E0064B1B6803F00073002BF0D11EE0D8
:10B24C007B68DB69012B07D1012319E00010024058
:10B25C0000700040600042420B4B5B68FB60FB6877
:10B26C0003F480327B681B6A9A4206D1FB6803F4B4
:10B27C0070127B685B6A9A4201D0012300E00023C4
:10B28C0018461837BD4680BD0010024080B584B00A
:10B29C0000AF786039607B68002B01D10123D0E0CE
:10B2AC006A4B1B6803F007033A689A4210D9674B44
:10B2BC001B6823F0070265493B6813430B60634B23
:10B2CC001B6803F007033A689A4201D00123B8E0E7
:10B2DC007B681B6803F00203002B20D07B681B6883
:10B2EC0003F00403002B05D0594B5B68584A43F418
:10B2FC00E06353607B681B6803F00803002B05D0E8
:10B30C00534B5B68524A43F460535360504B5B6839
:10B31C0023F0F0027B689B684D4913434B607B68BC
:10B32C001B6803F00103002B40D07B685B68012B8A
:10B33C0007D1474B1B6803F40033002B15D10123B5
:10B34C007FE07B685B68022B07D1414B1B6803F0E5
:10B35C000073002B09D1012373E03D4B1B6803F0F4
:10B36C000203002B01D101236BE0394B5B6823F006
:10B37C0003027B685B68364913434B60FFF79EF909
:10B38C00F8600AE0FFF79AF90246FB68D31A41F21B
:10B39C008832934201D9032353E02D4B5B6803F0B1
:10B3AC000C027B685B689B009A42EBD1274B1B68B5
:10B3BC0003F007033A689A4210D2244B1B6823F01F
:10B3CC00070222493B6813430B60204B1B6803F0B8
:10B3DC0007033A689A4201D0012332E07B681B686C
:10B3EC0003F00403002B08D0194B5B6823F4E062D4
:10B3FC007B68DB68164913434B607B681B6803F062
:10B40C000803002B09D0124B5B6823F460527B6855
:10B41C001B69DB000E4913434B6000F021F8024618
:10B42C000B4B5B681B0903F00F030A49CB5C22FA38
:10B43C0003F3094A1360094B1B681846FFF7FCF825
:10B44C00002318461037BD4680BD00BF00200240C7
:10B45C000010024074C0000800000020040000200E
:10B46C0080B487B000AF0023FB600023BB600023D7
:10B47C007B6100237B6000233B611E4B5B68FB60A0
:10B48C00FB6803F00C03042B02D0082B03D027E03D
:10B49C00194B3B6127E0FB689B0C03F00F03174A29
:10B4AC00D35C7B60FB6803F48033002B10D0114B12
:10B4BC005B685B0C03F00103114AD35CBB607B68D7
:10B4CC000D4A03FB02F2BB68B2FBF3F37B6104E0B1
:10B4DC007B680C4A02FB03F37B617B693B6102E0F6
:10B4EC00054B3B6100BF3B6918461C37BD4680BC11
:10B4FC00704700BF0010024000127A008CC0000898
:10B50C009CC0000800093D0080B400AF024B1B68D2
:10B51C001846BD4680BC70470000002080B500AFC7
:10B52C00FFF7F2FF0246054B5B681B0A03F00703AB
:10B53C000349CB5C22FA03F3184680BD001002408D
:10B54C0084C0000880B500AFFFF7DEFF0246054B54
:10B55C005B68DB0A03F007030349CB5C22FA03F3B5
:10B56C00184680BD0010024084C0000880B485B02D
:10B57C0000AF78600A4B1B680A4AA2FB03235B0AE4
:10B58C007A6802FB03F3FB6000BFFB685A1EFA608B
:10B59C00002BF9D100BF00BF1437BD4680BC7047EB
:10B5AC0000000020D34D621080B582B000AF7860EF
:10B5BC007B68002B01D1012342E07B6893F841307A
:10B5CC00DBB2002B06D17B68002283F84020786820
:10B5DC00FEF762FF7B68242283F841207B681B689E
:10B5EC00DA687B681B6822F40052DA60786800F035
:10B5FC0075FC7B681B681A697B681B6822F4904297
:10B60C001A617B681B685A697B681B6822F02A02E6
:10B61C005A617B681B68DA687B681B6842F40052CD
:10B62C00DA607B6800225A647B68202283F8412010
:10B63C007B68202283F842207B6800225A63002317
:10B64C0018460837BD4680BD80B5BAB000AF7860EB
:10B65C007B681B681B68C7F8E4307B681B68DB6879
:10B66C00C7F8E0307B681B685B69C7F8DC300023E7
:10B67C00C7F8D8300023C7F8D430D7F8E43003F03B
:10B68C000F03C7F8D830D7F8D830002B0FD1D7F824
:10B69C00E43003F02003002B09D0D7F8E03003F09E
:10B6AC002003002B03D0786800F05AFB5BE2D7F83C
:10B6BC00D830002B00F0DE80D7F8DC3003F001032B
:10B6CC00002B06D1D7F8E03003F49073002B00F078
:10B6DC00D180D7F8E43003F00103002B0BD0D7F85E
:10B6EC00E03003F48073002B05D07B685B6C43F077
:10B6FC0001027B685A64D7F8E43003F00403002B92
:10B70C000BD0D7F8DC3003F00103002B05D07B689D
:10B71C005B6C43F002027B685A64D7F8E43003F0A8
:10B72C000203002B0BD0D7F8DC3003F00103002B05
:10B73C0005D07B685B6C43F004027B685A64D7F8D5
:10B74C00E43003F00803002B11D0D7F8E03003F0FD
:10B75C002003002B05D1D7F8DC3003F00103002BBC
:10B76C0005D07B685B6C43F008027B685A647B688D
:10B77C005B6C002B00F0F281D7F8E43003F020036F
:10B78C00002B08D0D7F8E03003F02003002B02D0B8
:10B79C00786800F0E5FA7B681B685B6903F040038E
:10B7AC00002B14BF01230023DBB2C7F8D4307B6815
:10B7BC005B6C03F00803002B03D1D7F8D430002BBB
:10B7CC004FD0786800F0EFF97B681B685B6903F079
:10B7DC004003002B41D07B681B681433C7F89C30A6
:10B7EC00D7F89C3053E8003FC7F89830D7F898301A
:10B7FC0023F04003C7F8D0307B681B681433D7F8AC
:10B80C00D020C7F8A820C7F8A430D7F8A410D7F8D0
:10B81C00A82041E80023C7F8A030D7F8A030002BAF
:10B82C00D9D17B68DB6B002B13D07B68DB6B7E4A3A
:10B83C005A637B68DB6B1846FFF792F80346002BC4
:10B84C0016D07B68DB6B5B6B7A68D26B10469847C3
:10B85C000EE0786800F093F90AE0786800F08FF950
:10B86C0006E0786800F08BF97B6800225A6475E179
:10B87C0000BF73E17B681B6B012B40F04F81D7F845
:10B88C00E43003F01003002B00F04881D7F8E030CF
:10B89C0003F01003002B00F041810023BB607B6898
:10B8AC001B681B68BB607B681B685B68BB60BB6804
:10B8BC007B681B685B6903F04003002B00F0B680CB
:10B8CC007B68DB6B1B685B68A7F8BE30B7F8BE30D3
:10B8DC00002B00F045817B689B8DB7F8BE209A4207
:10B8EC0080F03E817B68B7F8BE20DA857B68DB6B25
:10B8FC009B69202B00F088807B681B680C33C7F891
:10B90C008830D7F8883053E8003FC7F88430D7F830
:10B91C00843023F48073C7F8B8307B681B680C3311
:10B92C00D7F8B820C7F89420C7F89030D7F8901003
:10B93C00D7F8942041E80023C7F88C30D7F88C3026
:10B94C00002BD9D17B681B6814337B677B6F53E862
:10B95C00003F3B673B6F23F00103C7F8B4307B68B3
:10B96C001B681433D7F8B420C7F88020FB67F96F35
:10B97C00D7F8802041E80023BB67BB6F002BE1D1D7
:10B98C007B681B6814333B663B6E53E8003FFB65DA
:10B99C00FB6D23F04003C7F8B0307B681B68143391
:10B9AC00D7F8B020FA66BB66B96EFA6E41E8002390
:10B9BC007B667B6E002BE3D17B68202283F84220D0
:10B9CC007B6800221A637B681B680C33FB64FB6C7E
:10B9DC0053E8003FBB64BB6C23F01003C7F8AC30DA
:10B9EC007B681B680C33D7F8AC20BA657B65796D26
:10B9FC00BA6D41E800233B653B6D002BE3D17B68BE
:10BA0C00DB6B1846FEF771FF7B6802225A637B687A
:10BA1C009A8D7B68DB8D9BB2D31A9BB219467868E2
:10BA2C0000F0B6F89CE000BF77BC00087B689A8DEC
:10BA3C007B68DB8D9BB2D31AA7F8CE307B68DB8D8D
:10BA4C009BB2002B00F08E80B7F8CE30002B00F0AC
:10BA5C0089807B681B680C33BB63BB6B53E8003F6E
:10BA6C007B637B6B23F49073C7F8C8307B681B68CF
:10BA7C000C33D7F8C8207A643B64396C7A6C41E893
:10BA8C000023FB63FB6B002BE3D17B681B68143337
:10BA9C007B627B6A53E8003F3B623B6A23F0010305
:10BAAC00C7F8C4307B681B681433D7F8C4203A63DA
:10BABC00FB62F96A3A6B41E80023BB62BB6A002B5C
:10BACC00E3D17B68202283F842207B6800221A6332
:10BADC007B681B680C333B613B6953E8003FFB60A0
:10BAEC00FB6823F01003C7F8C0307B681B680C336D
:10BAFC00D7F8C020FA61BB61B969FA6941E8002343
:10BB0C007B617B69002BE3D17B6802225A63B7F817
:10BB1C00CE301946786800F03BF823E0D7F8E430D3
:10BB2C0003F08003002B09D0D7F8E03003F080033A
:10BB3C00002B03D0786800F0ACF814E0D7F8E430B0
:10BB4C0003F04003002B0ED0D7F8E03003F0400395
:10BB5C00002B08D0786800F0EBF804E000BF02E09E
:10BB6C0000BF00E000BFE837BD4680BD80B483B0A5
:10BB7C0000AF786000BF0C37BD4680BC704780B406
:10BB8C0083B000AF786000BF0C37BD4680BC7047F7
:10BB9C0080B483B000AF78600B467B8000BF0C375D
:10BBAC00BD4680BC704780B495B000AF78607B68B0
:10BBBC001B680C337B637B6B53E8003F3B633B6B35
:10BBCC0023F49073FB647B681B680C33FA6C3A6447
:10BBDC00FB63F96B3A6C41E80023BB63BB6B002B36
:10BBEC00E5D17B681B6814333B623B6A53E8003F2A
:10BBFC00FB61FB6923F00103BB647B681B68143396
:10BC0C00BA6CFA62BB62B96AFA6A41E800237B62D9
:10BC1C007B6A002BE5D17B681B6B012B19D17B68F0
:10BC2C001B680C33FB60FB6853E8003FBB60BB68D0
:10BC3C0023F010037B647B681B680C337A6CBA614D
:10BC4C007B617969BA6941E800233B613B69002B50
:10BC5C00E5D17B68202283F842207B6800221A639E
:10BC6C0000BF5437BD4680BC704780B584B000AF70
:10BC7C0078607B685B6AFB60FB680022DA85FB6896
:10BC8C000022DA84F868FFF77AFF00BF1037BD4650
:10BC9C0080BD80B485B000AF78607B6893F841308C
:10BCAC00DBB2212B3ED17B689B68B3F5805F14D14E
:10BCBC007B681B69002B10D17B681B6AFB60FB68DF
:10BCCC001B881A467B681B68C2F308025A607B68A3
:10BCDC001B6A9A1C7B681A6208E07B681B6A591CF9
:10BCEC007A6811621A787B681B685A607B68DB8CF7
:10BCFC009BB2013B9BB27A681946D184002B0FD1C1
:10BD0C007B681B68DA687B681B6822F08002DA604B
:10BD1C007B681B68DA687B681B6842F04002DA605B
:10BD2C00002300E0022318461437BD4680BC704740
:10BD3C0080B582B000AF78607B681B68DA687B687E
:10BD4C001B6822F04002DA607B68202283F84120D5
:10BD5C007868FFF70BFF002318460837BD4680BDF7
:10BD6C0080B58CB000AF78607B6893F84230DBB262
:10BD7C00222B40F0AE807B689B68B3F5805F17D1B7
:10BD8C007B681B69002B13D10023FB627B689B6AC9
:10BD9C00BB627B681B685B689BB2C3F308039AB2F7
:10BDAC00BB6A1A807B689B6A9A1C7B689A6226E045
:10BDBC007B689B6AFB620023BB627B689B68B3F564
:10BDCC00805F07D07B689B68002B0AD17B681B695E
:10BDDC00002B06D17B681B685B68DAB2FB6A1A70B1
:10BDEC0008E07B681B685B68DBB203F07F03DAB2A8
:10BDFC00FB6A1A707B689B6A5A1C7B689A627B6828
:10BE0C00DB8D9BB2013B9BB27A681946D185002B26
:10BE1C005DD17B681B68DA687B681B6822F02002A6
:10BE2C00DA607B681B68DA687B681B6822F48072B6
:10BE3C00DA607B681B685A697B681B6822F0010218
:10BE4C005A617B68202283F842207B6800225A6367
:10BE5C007B681B6B012B35D17B6800221A637B68D6
:10BE6C001B680C337B617B6953E8003F3B613B698A
:10BE7C0023F010037B627B681B680C337A6A3A628E
:10BE8C00FB61F9693A6A41E80023BB61BB69002B8D
:10BE9C00E5D17B681B681B6803F01003102B0AD1DB
:10BEAC000023FB607B681B681B68FB607B681B685E
:10BEBC005B68FB60FB687B689B8D19467868FFF7B5
:10BECC0067FE02E07868FEF787F9002302E00023A2
:10BEDC0000E0022318463037BD4680BD80B584B0E3
:10BEEC0000AF78607B681B681B6923F440517B684A
:10BEFC00DA687B681B680A431A617B689A687B68FE
:10BF0C001B691A437B685B691343BB607B681B68C6
:10BF1C00DB6823F4B05323F00C037A681268B96819
:10BF2C000B43D3607B681B685B6923F440717B68AF
:10BF3C009A697B681B680A435A617B681B682C4AA8
:10BF4C00934203D1FFF7FEFAF86002E0FFF7E6FA3E
:10BF5C00F860FA6813469B0013449A001A447B68F5
:10BF6C005B689B00B2FBF3F3224AA2FB03235B0941
:10BF7C001901FA6813469B0013449A001A447B6813
:10BF8C005B689B00B2FBF3F21A4BA3FB02035B0949
:10BF9C00642000FB03F3D31A1B013233154AA2FBB6
:10BFAC0003235B0903F0F0031944FA6813469B0062
:10BFBC0013449A001A447B685B689B00B2FBF3F253
:10BFCC000C4BA3FB02035B09642000FB03F3D31AA5
:10BFDC001B013233074AA2FB03235B0903F00F0258
:10BFEC007B681B680A449A6000BF1037BD4680BD51
:10BFFC00003801401F85EB5103460244934200D1A7
:10C00C00704703F8011BF9E770B500260C4D0D4C79
:10C01C00641BA410A64209D100F01AF800260A4DA0
:10C02C000A4C641BA410A64205D170BD55F8043B04
:10C03C0098470136EEE755F8043B98470136F2E78E
:10C04C00A0C00008A0C00008A0C00008A4C0000840
:10C05C00F8B500BFF8BC08BC9E467047F8B500BFE9
:08C06C00F8BC08BC9E467047B9
:10C074000000000000000000010203040607080994
:10C084000000000001020304020304050607080976
:0CC094000A0B0C0D0E0F10100102000032
:04C0A00031A10008C2
:04C0A4000DA10008E2
:0CC0A8000024F400100000000100000063
:040000050800A5CD7D
:00000001FF
