:020000040800F2
:1000000000500020DD0E00082D0D0008330D000803
:10001000390D00083F0D0008450D000800000000E4
:100020000000000000000000000000004B0D000870
:10003000570D000800000000630D00086F0D000858
:10004000250F0008250F0008250F0008250F0008C0
:10005000250F0008250F0008250F0008250F0008B0
:10006000250F0008250F0008250F0008250F0008A0
:10007000250F0008250F0008250F0008250F000890
:10008000250F0008250F0008250F0008250F000880
:10009000250F0008250F0008250F0008250F000870
:1000A000250F0008250F0008250F0008250F000860
:1000B000250F0008250F0008250F0008250F000850
:1000C000250F0008250F0008250F0008250F000840
:1000D000250F0008250F0008250F0008250F000830
:1000E000250F0008250F0008250F0008000000005C
:1000F0000000000000000000000000000000000000
:0C01000000000000000000005FF808F1A3
:10010C0010B5054C237833B9044B13B10448AFF345
:10011C0000800123237010BD680000200000000047
:10012C004436000808B5034B1BB103490348AFF331
:10013C00008008BD000000006C0000204436000860
:10014C0080B582B000AF0023FB710123BB7100238B
:10015C007B71C8220021484802F0DCFD474800F0C2
:10016C00EFFC4FF0FF3301224349454802F023FCDA
:10017C000346BB71BB79002B02D00023FB7175E0E9
:10018C003D4B1B787B717B799AB24FF0FF333D4925
:10019C003B4802F010FC0346BB71BB79002B02D02C
:1001AC000023FB7162E0344B5B78103B112B57D86A
:1001BC0001A252F823F000BF0D020008190200083A
:1001CC0025020008310200083D020008490200081F
:1001DC00550200086D0200086D0200086D0200084F
:1001EC006D0200086D0200086D0200086D02000827
:1001FC006D0200086D0200086D0200086102000823
:10020C001D4800F0B9F80123FB712FE01A4800F0EB
:10021C00FFF80123FB7129E0174800F02BF90123AB
:10022C00FB7123E0144800F07FF90123FB711DE002
:10023C00114800F0E7F90123FB7117E00E4800F0BC
:10024C00B9FA0123FB7111E00B4800F063FB0123A9
:10025C00FB710BE0084800F00FFC0123FB7105E07B
:10026C00094800F06DFC0023FB7100BFFB791846B8
:10027C000837BD4680BD00BF840000205C360008F6
:10028C0058010020850000207436000880B588B025
:10029C0000AFF8600B467A60FB720023FB770023FB
:1002AC00BB610023FB7500233B610023FB750FE052
:1002BC00FB7DFA6813441B783B6107F110030122A4
:1002CC001946104800F0A5FFB861FB7D0133FB75A2
:1002DC00FA7DFB7A9A42EBD30A4B1B689A68094B5E
:1002EC001B6842F001029A60BA697B689A4202D19B
:1002FC000123FB7701E00023FB77FB7F18462037B7
:10030C00BD4680BD4C01002080B584B000AF0346D3
:10031C00FB710023BB81AB233B73FB797B7307F130
:10032C000C030221184600F013F800BF1037BD462D
:10033C0080BD80B582B000AFCD23FB71FB1D0121C8
:10034C00184600F005F800BF0837BD4680BD000018
:10035C0080B582B000AF786039603B689AB24FF0DC
:10036C00FF337968034802F0A3FA00BF0837BD4693
:10037C0080BD00BF5801002080B586B000AF78600A
:10038C001E4BFB600023FB8200233B611C4800F0EA
:10039C00D7FB7B681B789BB20133FB82FB8A043B47
:1003AC007A6813441B683B61FB8ADBB2043BDBB20B
:1003BC003A6919467868FFF769FF0346012B14D197
:1003CC00104800F0BDFB0420FFF79EFF07F10C0363
:1003DC0004211846FFF7BCFF7B7B1946BB7B1A46F2
:1003EC00FB7B094800F0ACFB04E0084800F0A8FBDC
:1003FC00FFF79FFF00BF1837BD4680BD64010100A9
:10040C00A4360008C0360008D0360008EC360008C8
:10041C0080B584B000AF78600023FB810023BB6003
:10042C00104800F08DFB7B681B789BB20133FB817D
:10043C00FB89043B7A6813441B68BB600A4800F0D4
:10044C007FFB0C20FFF760FF0C210848FFF780FFB3
:10045C00074800F075FBFFF76CFF00BF1037BD4677
:10046C0080BD00BFFC360008C0360008000000202C
:10047C00EC36000880B586B000AF78600023FB82B4
:10048C0000233B610023FB811B4800F059FB7B6878
:10049C001B789BB20133FB82FB8A043B7A681344C2
:1004AC001B683B61FB8ADBB2043BDBB23A69194641
:1004BC007868FFF7EBFE0346012B13D10F4800F0D1
:1004CC003FFB0F4B1B689BB2C3F30B039BB2FB812F
:1004DC000220FFF719FF07F10E0302211846FFF760
:1004EC0037FF04E0074800F02BFBFFF722FF00BFAB
:1004FC001837BD4680BD00BF1C370008C036000849
:10050C00002004E0EC36000880B58AB000AF7860BB
:10051C0007F10C03184601F05BF93A7F7B681A70FF
:10052C0000BF2837BD4680BD80B586B000AF78606F
:10053C000023FB8200233B610023FB731A4800F06D
:10054C00FFFA7B681B789BB20133FB82FB8A043B6E
:10055C007A6813441B683B61FB8ADBB2043BDBB259
:10056C003A6919467868FFF791FE0346012B11D1C1
:10057C000E4800F0E5FA0120FFF7C6FE07F10F0365
:10058C001846FFF7C1FF07F10F0301211846FFF7CB
:10059C00DFFE04E0064800F0D3FAFFF7CAFE00BF06
:1005AC001837BD4680BD00BF44370008C036000870
:1005BC00EC36000880B485B000AF78600023FB7384
:1005CC007B68B3F1005F06D37B680C4A934202D878
:1005DC000123FB730CE07B68B3F1006F06D37B68DF
:1005EC00074A934202D80123FB7301E00023FB73FB
:1005FC00FB7B18461437BD4680BC7047005000206A
:10060C000000020880B588B000AF78600023FB833F
:10061C000023BB6100237B610023FB73234800F0A4
:10062C008FFA7B681B789BB20133FB83FB8B043BFB
:10063C007A6813441B68BB61FB8BDBB2043BDBB2F7
:10064C00BA6919467868FFF721FE0346012B24D1BD
:10065C00174800F075FA0120FFF756FE7B68D3F8B7
:10066C0002307B617869FFF7A5FF0346FB73FB7BC8
:10067C00012B0BD10F4800F063FA7B6901333B610E
:10068C003B69984739690C4800F05AFA07F10F0397
:10069C0001211846FFF75CFE04E0084800F050FA10
:1006AC00FFF747FE00BF2037BD4680BD6C37000802
:1006BC00C036000884370008A4370008EC36000860
:1006CC0080B588B000AF03460A46FB711346BB7178
:1006DC000023FB770123BB770023BB610123FB6065
:1006EC00FB790E2B05D80023FB772D4800F028FA58
:1006FC0051E0FA79BB791344802B08DDFB79FF2B91
:10070C0005D0284800F01CFA0023FB7743E026486C
:10071C0000F016FA0123FB77FB79FF2B05D102239E
:10072C00BB60224800F00CFA0BE00023BB602048B1
:10073C0000F006FAFB7903F500339B023B61BB79B1
:10074C007B6100F001FE0346BB77BB7F002B13D10E
:10075C0007F1180207F108031146184600F00EFFC6
:10076C000346BB77BB69B3F1FF3F02D10323FB7791
:10077C0004E00223FB7701E00223FB77FB7F032BD2
:10078C0007D1BB7F002B04D100F004FE0346BB77DE
:10079C0001E00023FB77FB7F18462037BD4680BD68
:1007AC00B8370008E0370008003800081438000893
:1007BC002438000880B586B000AF78600023FB8237
:1007CC0000233B610223FB73224800F0B9F97B68DC
:1007DC001B789BB20133FB82FB8A043B7A6813447F
:1007EC001B683B61FB8ADBB2043BDBB23A691946FE
:1007FC007868FFF74BFD0346012B22D1164800F019
:10080C009FF90120FFF780FD7B6802331A787B6823
:10081C0003331B7819461046FFF752FF0346FB7350
:10082C00FB7B032B03D10D4800F08AF902E00C4846
:10083C0000F086F907F10F0301211846FFF788FD38
:10084C0004E0084800F07CF9FFF773FD00BF18378F
:10085C00BD4680BD34380008C03600086838000832
:10086C007C380008EC360008B0B586B000AFF860F4
:10087C00B9601346FB800123FB750023BB75002375
:10088C00BB8200F061FD0346FB75FB7D002B24D180
:10089C000023BB821CE0BA8ABB68D118BB8AFA68F9
:1008AC0013441B78DBB200221C46154622462B460D
:1008BC00022000F0D9FC0346FB75FB7D002B02D017
:1008CC000023BB750BE00123BB75BB8A0433BB82D1
:1008DC00BA8AFB889A42DED301E00023BB75BB7D4C
:1008EC00012B0FD1FB7D002B0CD100F053FD0346E7
:1008FC00FB75FB7D002B02D00023BB7504E00123AC
:10090C00BB7501E00023BB75BB7D18461837BD468F
:10091C00B0BD000080B586B000AF78600023FB82CC
:10092C0000233B610023FB600023FB720023BB729E
:10093C0000237B72274800F003F97B681B789BB27D
:10094C000133FB82FB8A043B7A6813441B683B61CE
:10095C00FB8ADBB2043BDBB23A6919467868FFF7D5
:10096C0095FC0346012B2BD11B4800F0E9F8012024
:10097C00FFF7CAFC7B68D3F80230FB607B689B797D
:10098C00FB72F868FFF716FE0346BB72BB7A012BAD
:10099C000FD17B680733FA7A92B2F9681846FFF7E1
:1009AC0063FF03467B7207F1090301211846FFF729
:1009BC00CFFC07F10A0301211846FFF7C9FC04E03C
:1009CC00064800F0BDF8FFF7B4FC00BF1837BD4671
:1009DC0080BD00BF94380008C0360008EC36000813
:1009EC0080B58AB000AF0346FB71012387F826302F
:1009FC00002387F8273000F0DDFC034687F826300B
:100A0C0097F82630002B03D0002387F827302CE0F2
:100A1C000223BB6001237B61FB793B7607F1080362
:100A2C00184600F059FE034687F8263097F8263012
:100A3C00002B08D000F0DAFC034687F826300023A0
:100A4C0087F8273011E000F0E1FC00F0CFFC034602
:100A5C0087F8263097F82630002B03D0002387F830
:100A6C00273002E0012387F8273097F82730184603
:100A7C002837BD4680BD000080B586B000AF7860D9
:100A8C000023BB8200233B610023FB730023FB7517
:100A9C00284800F055F87B681B789BB20133BB8269
:100AAC00BB8A043B7A6813441B683B61BB8ADBB28C
:100ABC00043BDBB23A6919467868FFF7E7FB03465B
:100ACC00012B2DD11C4800F03BF80120FFF71CFC3A
:100ADC007B689B78FB75FB7D022B02D10023FB739B
:100AEC0017E0FB7D002B04D1AA23FB750123FB73BC
:100AFC0009E0FB7D012B04D15523FB750123FB730E
:100B0C0001E00023FB73FB7D1846FFF769FF0346EA
:100B1C00FB7307F10F0301211846FFF719FC04E0E2
:100B2C00064800F00DF8FFF704FC00BF1837BD466F
:100B3C0080BD00BFB8380008C0360008EC3600088D
:100B4C000FB480B59AB000AF00237B6007F10803A7
:100B5C0060220021184602F0DDF807F174033B60B7
:100B6C003B1D3A68396F184602F0CAF8391D4FF030
:100B7C00FF336422044801F09BFE00BF6837BD467A
:100B8C00BDE8804004B070475801002080B500AF2C
:100B9C00064B074A1A60054800F01FFB0346002B62
:100BAC0001D000F096F800BF80BD00BF4C010020C2
:100BBC000030024080B485B000AF78607B681B6861
:100BCC00094A93420BD1094B5B69084A43F0400335
:100BDC005361064B5B6903F04003FB60FB6800BF8D
:100BEC001437BD4680BC70470030024000100240F4
:100BFC0080B483B000AF0E4B9B690D4A43F02003C9
:100C0C0093610B4B9B6903F020037B607B68084B63
:100C1C009B69074A43F004039361054B9B6903F0FE
:100C2C0004033B603B6800BF0C37BD4680BC70477B
:100C3C000010024080B500AF00F070F900F009F828
:100C4C00FFF7D6FFFFF7A2FF00F0CEF8FFF778FA18
:100C5C00FCE780B590B000AF07F118032822002103
:100C6C00184602F057F83B1D00221A605A609A6031
:100C7C00DA601A610223BB610123BB621023FB62A1
:100C8C0002237B630023BB634FF40023FB6307F158
:100C9C001803184601F0ACF90346002B01D000F004
:100CAC0018F80F237B600223BB600023FB6000233A
:100CBC003B6100237B613B1D0021184601F01AFCAF
:100CCC000346002B01D000F004F800BF4037BD46AE
:100CDC0080BD80B400AF72B600BFFEE780B483B0B5
:100CEC0000AF0E4B9B690D4A43F0010393610B4B14
:100CFC009B6903F001037B607B68084BDB69074A47
:100D0C0043F08053D361054BDB6903F080533B60A8
:100D1C003B6800BF0C37BD4680BC704700100240DA
:100D2C0080B400AFFEE780B400AFFEE780B400AF44
:100D3C00FEE780B400AFFEE780B400AFFEE780B4FE
:100D4C0000AF00BFBD4680BC704780B400AF00BF91
:100D5C00BD4680BC704780B400AF00BFBD4680BCB0
:100D6C00704780B500AF00F01FF900BF80BD0000D8
:100D7C0080B586B000AF7860144A154BD31A7B61EE
:100D8C007B693B61134B1B68002B02D1114B124A40
:100D9C001A60104B1A687B6813443A699A4207D25E
:100DAC0001F0C0FF03460C221A604FF0FF3309E03C
:100DBC00084B1B68FB60074B1A687B681344054A99
:100DCC001360FB6818461837BD4680BD00500020E4
:100DDC0000040000540100201003002080B400AF78
:100DEC0000BFBD4680BC704780B500AF114B124AA6
:100DFC001A60104B4FF4E1325A600E4B00229A608D
:100E0C000C4B0022DA600B4B00221A61094B0C22AE
:100E1C005A61084B00229A61064B0022DA610548A0
:100E2C0001F0F6FC0346002B01D0FFF752FF00BF88
:100E3C0080BD00BF580100200044004080B588B040
:100E4C0000AF786007F1100300221A605A609A60B4
:100E5C00DA607B681B681B4A93422FD11A4BDB6903
:100E6C00194A43F40033D361174BDB6903F40033A5
:100E7C00FB60FB68144B9B69134A43F004039361BA
:100E8C00114B9B6903F00403BB60BB6804233B61FB
:100E9C0002237B610323FB6107F1100319460B4806
:100EAC0000F022FF08233B6100237B610023BB6120
:100EBC0007F110031946054800F016FF00BF203754
:100ECC00BD4680BD004400400010024000080140B7
:100EDC00FFF784FF0B480C490C4A002302E0D4585E
:100EEC00C4500433C4188C42F9D3094A094C00236A
:100EFC0001E013600432A242FBD301F019FFFFF7AB
:100F0C0099FE704700000020680000204C39000852
:100F1C006800002010030020FEE7000080B500AF41
:100F2C00084B1B68074A43F010031360032000F0C2
:100F3C001DF90F2000F008F8FFF7D0FE002318462B
:100F4C0080BD00BF0020024080B582B000AF786049
:100F5C00124B1A68124B1B7819464FF47A73B3FB79
:100F6C00F1F3B2FBF3F3184600F02BF90346002B18
:100F7C0001D001230EE07B680F2B0AD80022796880
:100F8C004FF0FF3000F0FDF8064A7B681360002339
:100F9C0000E0012318460837BD4680BD0C00002038
:100FAC00140000201000002080B400AF054B1B780B
:100FBC001A46054B1B681344034A136000BFBD4619
:100FCC0080BC704714000020A001002080B400AF4A
:100FDC00024B1B681846BD4680BC7047A001002020
:100FEC0080B485B000AF78607B6803F00703FB60CA
:100FFC000C4BDB68BB60BA684FF6FF031340BB6059
:10100C00FB681A02BB68134343F0BF6343F400331D
:10101C00BB60044ABB68D36000BF1437BD4680BCBC
:10102C00704700BF00ED00E080B400AF044BDB68FC
:10103C001B0A03F007031846BD4680BC704700BF6F
:10104C0000ED00E080B483B000AF03463960FB7163
:10105C0097F90730002B0ADB3B68DAB20C4997F999
:10106C0007301201D2B20B4483F800230AE03B682C
:10107C00DAB20849FB7903F00F03043B1201D2B238
:10108C000B441A7600BF0C37BD4680BC704700BFBE
:10109C0000E100E000ED00E080B489B000AFF86042
:1010AC00B9607A60FB6803F00703FB61FB69C3F16D
:1010BC000703042B28BF0423BB61FB690433062BF5
:1010CC0002D9FB69033B00E000237B614FF0FF3248
:1010DC00BB6902FA03F3DA43BB681A407B699A4096
:1010EC004FF0FF317B6901FA03F3D9437B680B4066
:1010FC00134318462437BD4680BC704780B400AFFC
:10110C00BFF34F8F00BF064BDB6803F4E06204496A
:10111C00044B1343CB60BFF34F8F00BF00BFFDE701
:10112C0000ED00E00400FA0580B582B000AF7860F5
:10113C007B68013BB3F1807F01D301230FE00A4AA6
:10114C007B68013B53600F214FF0FF30FFF77AFFB4
:10115C00054B00229A60044B07221A6000231846A4
:10116C000837BD4680BD00BF10E000E080B582B0FE
:10117C0000AF78607868FFF733FF00BF0837BD46D3
:10118C0080BD80B586B000AF0346B9607A60FB7352
:10119C0000237B61FFF748FF78617A68B96878694A
:1011AC00FFF77AFF024697F90F3011461846FFF702
:1011BC0049FF00BF1837BD4680BD80B500AFFFF7B3
:1011CC009DFF80B582B000AF78607868FFF7ACFF08
:1011DC00034618460837BD4680BD80B582B000AFC7
:1011EC0078607B68002B01D101230EE07B685B7972
:1011FC00DBB2002B05D17B6800221A717868FFF7EF
:10120C00D9FC7B6801225A71002318460837BD4669
:10121C0080BD80B487B000AFF860B9607A600023FD
:10122C003B61FB6802225A7100237B610AE07B69F7
:10123C009B00BA681A44FB681B6812681A607B69C9
:10124C0001337B617A697B689A42F0D3FB681B6837
:10125C001B683B61FB6801225A713B6918461C37BD
:10126C00BD4680BC70470000F0B587B000AFF86099
:10127C00B960C7E900230123FB750023BB7500236C
:10128C007B752F4B1B7E012B01D1022354E02C4B81
:10129C0001221A764CF2503000F0DAF80346FB7556
:1012AC00FB7D002B44D1FB68012B02D101237B7504
:1012BC0007E0FB68022B02D102237B7501E00423BB
:1012CC007B750023BB752DE0BB7D5A00BB6802EB20
:1012DC00030CBB7D1901D7E90023C1F12006A1F154
:1012EC00200022FA01F403FA06F6344323FA00F044
:1012FC00044323FA01F5A3B21946604600F08CF8BA
:10130C004CF2503000F0A4F80346FB750D4B1B69F2
:10131C000C4A23F001031361FB7D002B07D1BB7D2D
:10132C000133BB75BA7D7B7D9A42CDD300E000BF03
:10133C00034B00221A76FB7D18461C37BD46F0BDC8
:10134C00A80100200020024080B483B000AF00232D
:10135C00FB710D4B1B6903F08003002B0DD00A4B66
:10136C000A4A5A60084B0A4A5A60074B1B6903F039
:10137C008003002B01D00123FB71FB7918460C373D
:10138C00BD4680BC704700BF00200240230167456A
:10139C00AB89EFCD80B400AF054B1B69044A43F019
:1013AC008003136100231846BD4680BC704700BF04
:1013BC000020024080B400AF094B1B6903F400739A
:1013CC00002B07D1064B074A9A60054B064A9A60D8
:1013DC00002300E001231846BD4680BC704700BFC7
:1013EC000020024023016745AB89EFCD80B400AFEC
:1013FC00054B1B69044A23F4007313610023184640
:10140C00BD4680BC704700BF0020024080B500AFD5
:10141C00FFF7D3FE00BF80BD80B483B000AF78600F
:10142C000B467B80084B0022DA61084B1B69074A8C
:10143C0043F0010313617B687A881A8000BF0C3774
:10144C00BD4680BC704700BFA801002000200240B0
:10145C0080B584B000AF7860FFF7B8FDF86010E09D
:10146C007B68B3F1FF3F0CD07B68002B07D0FFF7F4
:10147C00ADFD0246FB68D31A7A689A4201D2032367
:10148C0025E0154BDB6803F00103002BE8D1124B70
:10149C00DB6803F02003002B02D00F4B2022DA6014
:1014AC000D4BDB6803F01003002B0BD10A4BDB69EF
:1014BC0003F00103002B05D1074BDB6803F0040399
:1014CC00002B03D000F00AF8012300E0002318469B
:1014DC001037BD4680BD00BF0020024080B483B0F1
:1014EC0000AF00237B60234BDB6803F01003002B61
:1014FC0009D0214BDB6943F002031F4AD3617B689F
:10150C0043F010037B601B4BDB6803F00403002BE0
:10151C0009D0194BDB6943F00103174AD3617B688F
:10152C0043F004037B60134BDB6903F00103002BD6
:10153C000BD0114BDB6943F004030F4AD3610D4B05
:10154C00DB690C4A23F00103D3617B6840F2011282
:10155C00934206D1074BDB69064A23F00103D361A2
:10156C0002E0044A7B68D36000BF0C37BD4680BCE8
:10157C00704700BF00200240A801002080B584B055
:10158C0000AF786039600123FB730023BB602F4BE5
:10159C001B7E012B01D1022353E02C4B01221A7626
:1015AC007B681B68022B16D14CF25030FFF750FFB2
:1015BC000346002B41D1012000F026F94CF25030AB
:1015CC00FFF746FF0346FB73214B1B69204A23F0B0
:1015DC000403136131E04CF25030FFF739FF03463E
:1015EC00002B2AD13B684FF0FF321A607B689B6856
:1015FC00BB6019E0B86800F057FB4CF25030FFF7B5
:10160C0027FF0346FB73124B1B69114A23F002039D
:10161C001361FB7B002B03D03B68BA681A600CE0AB
:10162C00BB6803F58063BB607B68DB689A027B68F0
:10163C009B681344BA689A42DCD3044B00221A7696
:10164C00FB7B18461037BD4680BD00BFA8010020AB
:10165C000020024080B582B000AFA523BB710123EE
:10166C00FB7100F0F5FA0346BB714CF25030FFF7FA
:10167C00EFFE0346FB71FB79002B23D1144B0022A8
:10168C00DA61144B1B69134A43F020031361114BAD
:10169C001B69104A43F0400313614CF25030FFF7C2
:1016AC00D7FE0346FB710B4B1B690A4A23F0200340
:1016BC001361FB79002B05D1BB79184600F002FAB7
:1016CC000346FB71FB7918460837BD4680BD00BF49
:1016DC00A80100200020024080B584B000AF7860E3
:1016EC000123FB73394B1B7E012B01D1022369E0D3
:1016FC00364B01221A767B681B6803F00103002B22
:10170C001AD07B685B68012B07D17B689B681846F5
:10171C0000F096F80346FB7306E07B689B6818465E
:10172C0000F030F90346FB73FB7B002B04D0274BF6
:10173C0000221A76FB7B45E07B681B6803F00203F2
:10174C00002B0ED07B681B7C184600F0BBF90346BF
:10175C00FB73FB7B002B04D01C4B00221A76FB7B0B
:10176C0030E07B681B6803F00403002B0ED07B6811
:10177C005B7C184600F0F6F90346FB73FB7B002BF1
:10178C0004D0124B00221A76FB7B1BE07B681B6893
:10179C0003F00803002B11D07B685A697B681B7E11
:1017AC001946104600F016FA0346FB73FB7B002B20
:1017BC0004D0064B00221A76FB7B03E0034B00227D
:1017CC001A76FB7B18461037BD4680BDA801002059
:1017DC0080B582B000AF78607B6807221A6000F099
:1017EC002DFA02467B689A6000F032FA0346DAB2B0
:1017FC007B681A7400F048FA03461A467B685A74E0
:10180C0000BF0837BD4680BD80B483B000AF7860A0
:10181C00094B0022DA61094B1B69084A43F00403A7
:10182C001361064B1B69054A43F04003136100BF6B
:10183C000C37BD4680BC7047A80100200020024038
:10184C0080B586B000AF78600023FB754FF6FF7350
:10185C00BB824FF6FF737B824FF6FF733B824FF6D2
:10186C00FF73FB8100F0EAF902467B68DB4313400F
:10187C007B607B689BB2DBB2BB827B681B0A9BB232
:10188C00DBB27B827B681B0C9BB2DBB23B827B683E
:10189C001B0EFB814CF25030FFF7DAFD0346FB7553
:1018AC00FB7D002B62D1344B0022DA61FFF7D2FEB4
:1018BC000346FB75FB7D002B58D1304B1B692F4A1F
:1018CC0043F010031361BB8AFF2B0DD02C4B1B89EB
:1018DC009AB22B49BB8A13409BB20B814CF250300D
:1018EC00FFF7B6FD0346FB75FB7D002B10D17B8A01
:1018FC00FF2B0DD0224B5B899AB221497B8A134076
:10190C009BB24B814CF25030FFF7A2FD0346FB75A6
:10191C00FB7D002B10D13B8AFF2B0DD0184B9B89E4
:10192C009AB217493B8A13409BB28B814CF25030D0
:10193C00FFF78EFD0346FB75FB7D002B10D1FB8959
:10194C00FF2B0DD00E4BDB899AB20D49FB8913404E
:10195C009BB2CB814CF25030FFF77AFD0346FB75FE
:10196C00064B1B69054A23F010031361FB7D1846D7
:10197C001837BD4680BD00BFA801002000200240E2
:10198C0000F8FF1F80B586B000AF78600023FB75B0
:10199C004FF6FF73BB824FF6FF737B824FF6FF73DC
:1019AC003B824FF6FF73FB8100F048F902467B68DF
:1019BC0013437B607B689BB2DBB2BB827B681B0AE8
:1019CC009BB2DBB27B827B681B0C9BB2DBB23B8293
:1019DC007B681B0EFB814CF25030FFF739FD034640
:1019EC00FB75FB7D002B62D1334B0022DA61FFF7D4
:1019FC0031FE0346FB75FB7D002B58D12F4B1B6929
:101A0C002E4A43F010031361BB8AFF2B0DD02C4BD5
:101A1C001B899AB22A49BB8A13439BB20B814CF2A5
:101A2C005030FFF715FD0346FB75FB7D002B10D1E5
:101A3C007B8AFF2B0DD0224B5B899AB220497B8A83
:101A4C0013439BB24B814CF25030FFF701FD034620
:101A5C00FB75FB7D002B10D13B8AFF2B0DD0184B57
:101A6C009B899AB216493B8A13439BB28B814CF2E9
:101A7C005030FFF7EDFC0346FB75FB7D002B10D1BE
:101A8C00FB89FF2B0DD00E4BDB899AB20C49FB89DD
:101A9C0013439BB2CB814CF25030FFF7D9FC034679
:101AAC00FB75064B1B69054A23F010031361FB7D84
:101ABC0018461837BD4680BDA80100200020024002
:101ACC0000F8FF1F80B584B000AF0346FB71002304
:101ADC00FB734CF25030FFF7BBFC0346FB73FB7BF4
:101AEC00002B33D11C4B0022DA611C4B1B691B4AA7
:101AFC0043F020031361194B1B69184A43F0400350
:101B0C0013614CF25030FFF7A3FC0346FB73134BED
:101B1C001B69124A23F020031361FB7B002B15D1A8
:101B2C000E4B1B690D4A43F0100313610C4BFA79F1
:101B3C0092B21A804CF25030FFF78AFC0346FB73CA
:101B4C00064B1B69054A23F010031361FB7B1846F7
:101B5C001037BD4680BD00BFA80100200020024008
:101B6C0000F8FF1F80B584B000AF0346FB71002363
:101B7C00FB734CF25030FFF76BFC0346FB73FB7BA3
:101B8C00002B1BD1104B0022DA61104B1B690F4A42
:101B9C0043F010031361FB7963F07703DAB20C4B5B
:101BAC0092B25A804CF25030FFF752FC0346FB7352
:101BBC00064B1B69054A23F010031361FB7B184687
:101BCC001037BD4680BD00BFA80100200020024098
:101BDC0000F8FF1F80B584B000AF78600B46FB7037
:101BEC000123FB734CF25030FFF732FC0346FB73BE
:101BFC00FB7B002B18D10F4B0022DA610E4B1B69BB
:101C0C000D4A43F0100313617B68FA7892B21A8084
:101C1C004CF25030FFF71CFC0346FB73064B1B6960
:101C2C00054A23F010031361FB7B18461037BD46A1
:101C3C0080BD00BFA80100200020024080B400AF8E
:101C4C00024B1B6A1846BD4680BC70470020024000
:101C5C0080B483B000AFA5237B6000233B60094BAD
:101C6C00DB6903F002033B603B68022B02D10023CB
:101C7C007B6001E0A5237B607B6818460C37BD4672
:101C8C0080BC70470020024080B400AF054BDB697C
:101C9C009B08DBB203F00703DBB21846BD4680BCE1
:101CAC00704700BF0020024080B483B000AF786062
:101CBC000B4B0022DA610B4B1B690A4A43F00203FF
:101CCC001361084A7B685361064B1B69054A43F054
:101CDC004003136100BF0C37BD4680BC704700BF8A
:101CEC00A80100200020024080B48BB000AF7860C7
:101CFC00396000237B6200233B6269E101227B6A2D
:101D0C0002FA03F3FB613B681B68FA691340BB6181
:101D1C00BA69FB699A4240F058813B685B689A4A01
:101D2C0093425ED0984A934275D8984A934258D0C1
:101D3C00964A93426FD8964A934252D0944A934211
:101D4C0069D8944A93424CD0924A934263D8924AAF
:101D5C00934246D0904A93425DD8122B2AD8122B2C
:101D6C0059D801A252F823F0EF1D0008C91D000834
:101D7C00DB1D00081D1E0008231E0008231E000882
:101D8C00231E0008231E0008231E0008231E000823
:101D9C00231E0008231E0008231E0008231E000813
:101DAC00231E0008231E0008231E0008D11D000856
:101DBC00E51D0008794A934213D02CE03B68DB68A0
:101DCC003B6229E03B68DB6804333B6224E03B6800
:101DDC00DB6808333B621FE03B68DB680C333B621B
:101DEC001AE03B689B68002B02D104233B6213E092
:101DFC003B689B68012B05D108233B627B68FA6921
:101E0C001A6109E008233B627B68FA695A6103E0B6
:101E1C0000233B6200E000BFBB69FF2B01D87B684D
:101E2C0001E07B6804337B61BB69FF2B02D87B6AC2
:101E3C009B0002E07B6A083B9B003B617B691A6854
:101E4C000F213B6901FA03F3DB431A40396A3B6902
:101E5C0001FA03F31A437B691A603B685B6803F071
:101E6C008053002B00F0B1804D4B9B694C4A43F0E2
:101E7C00010393614A4B9B6903F00103BB60BB6890
:101E8C00484A7B6A9B08023352F82330FB607B6A1A
:101E9C0003F003039B000F2202FA03F3DB43FA68FF
:101EAC001340FB607B68404A934213D07B683F4AE7
:101EBC0093420DD07B683E4A934207D07B683D4AE3
:101ECC00934201D1032306E0042304E0022302E041
:101EDC00012300E000237A6A02F00302920093408F
:101EEC00FA681343FB602F497B6A9B080233FA683C
:101EFC0041F823203B685B6803F48013002B06D069
:101F0C002D4B9A682C49BB6913438B6006E02A4B16
:101F1C009A68BB69DB43284913408B603B685B685C
:101F2C0003F40013002B06D0234BDA682249BB695B
:101F3C001343CB6006E0204BDA68BB69DB431E49D8
:101F4C001340CB603B685B6803F40033002B06D076
:101F5C00194B5A681849BB6913434B6006E0164B82
:101F6C005A68BB69DB43144913404B603B685B68A0
:101F7C0003F48033002B21D00F4B1A680E49BB6938
:101F8C0013430B6021E000BF000032100000311041
:101F9C00000022100000211000001210000011108F
:101FAC00001002400000014000080140000C0140FC
:101FBC000010014000140140000401400B4B1A6852
:101FCC00BB69DB43094913400B607B6A01337B62BD
:101FDC003B681A687B6A22FA03F3002B7FF48EAEFF
:101FEC0000BF00BF2C37BD4680BC704700040140C9
:101FFC0080B586B000AF78607B68002B01D10123DF
:10200C0072E27B681B6803F00103002B00F08780F1
:10201C00924B5B6803F00C03042B0CD08F4B5B686A
:10202C0003F00C03082B12D18C4B5B6803F4803348
:10203C00B3F5803F0BD1894B1B6803F40033002BA5
:10204C006CD07B685B68002B68D101234CE27B6809
:10205C005B68B3F5803F06D1804B1B687F4A43F425
:10206C00803313602EE07B685B68002B0CD17B4BBC
:10207C001B687A4A23F480331360784B1B68774AC9
:10208C0023F4802313601DE07B685B68B3F5A02FFD
:10209C000CD1724B1B68714A43F4802313606F4B55
:1020AC001B686E4A43F4803313600BE06B4B1B6868
:1020BC006A4A23F480331360684B1B68674A23F425
:1020CC00802313607B685B68002B13D0FEF77EFFC8
:1020DC00386108E0FEF77AFF02463B69D31A642B9D
:1020EC0001D9032300E25D4B1B6803F40033002B82
:1020FC00F0D014E0FEF76AFF386108E0FEF766FFE7
:10210C0002463B69D31A642B01D90323ECE1534BF0
:10211C001B6803F40033002BF0D100E000BF7B6898
:10212C001B6803F00203002B63D04C4B5B6803F07D
:10213C000C03002B0BD0494B5B6803F00C03082BF2
:10214C001CD1464B5B6803F48033002B16D1434BF8
:10215C001B6803F00203002B05D07B681B69012B65
:10216C0001D00123C0E13D4B1B6823F0F8027B68D2
:10217C005B69DB00394913430B603AE07B681B69F0
:10218C00002B20D0364B01221A60FEF71FFF38615E
:10219C0008E0FEF71BFF02463B69D31A022B01D95C
:1021AC000323A1E12D4B1B6803F00203002BF0D09D
:1021BC002A4B1B6823F0F8027B685B69DB0027491C
:1021CC0013430B6015E0264B00221A60FEF7FEFE4F
:1021DC00386108E0FEF7FAFE02463B69D31A022B7F
:1021EC0001D9032380E11D4B1B6803F00203002B74
:1021FC00F0D17B681B6803F00803002B3AD07B6896
:10220C009B69002B19D0174B01221A60FEF7DEFEDA
:10221C00386108E0FEF7DAFE02463B69D31A022B5E
:10222C0001D9032360E10D4B5B6A03F00203002B21
:10223C00F0D0012000F0CEFA1CE00A4B00221A600C
:10224C00FEF7C4FE38610FE0FEF7C0FE02463B69A4
:10225C00D31A022B08D9032346E100BF0010024019
:10226C000000424280044242924B5B6A03F002033C
:10227C00002BE9D17B681B6803F00403002B00F0F2
:10228C00A6800023FB758B4BDB6903F08053002B7E
:10229C000DD1884BDB69874A43F08053D361854B62
:1022AC00DB6903F08053BB60BB680123FB75824B79
:1022BC001B6803F48073002B18D17F4B1B687E4A7C
:1022CC0043F480731360FEF781FE386108E0FEF77B
:1022DC007DFE02463B69D31A642B01D9032303E12B
:1022EC00754B1B6803F48073002BF0D07B68DB68A4
:1022FC00012B06D16F4B1B6A6E4A43F0010313622C
:10230C002DE07B68DB68002B0CD16A4B1B6A694A99
:10231C0023F001031362674B1B6A664A23F0040324
:10232C0013621CE07B68DB68052B0CD1614B1B6ACC
:10233C00604A43F0040313625E4B1B6A5D4A43F030
:10234C00010313620BE05B4B1B6A5A4A23F0010337
:10235C001362584B1B6A574A23F0040313627B68C1
:10236C00DB68002B15D0FEF731FE38610AE0FEF772
:10237C002DFE02463B69D31A41F28832934201D9B1
:10238C000323B1E04B4B1B6A03F00203002BEED08E
:10239C0014E0FEF71BFE38610AE0FEF717FE02465A
:1023AC003B69D31A41F28832934201D903239BE053
:1023BC00404B1B6A03F00203002BEED1FB7D012B7B
:1023CC0005D13C4BDB693B4A23F08053D3617B68DE
:1023DC00DB69002B00F08780364B5B6803F00C0345
:1023EC00082B61D07B68DB69022B46D1334B002272
:1023FC001A60FEF7EBFD386108E0FEF7E7FD0246D8
:10240C003B69D31A022B01D903236DE0294B1B68BE
:10241C0003F00073002BF0D17B681B6AB3F5803F8F
:10242C0008D1244B5B6823F400327B689B682149FC
:10243C0013434B601F4B5B6823F474127B68196A5F
:10244C007B685B6A0B431B4913434B601B4B01229C
:10245C001A60FEF7BBFD386108E0FEF7B7FD0246D7
:10246C003B69D31A022B01D903233DE0114B1B68A6
:10247C0003F00073002BF0D035E0104B00221A60F3
:10248C00FEF7A4FD386108E0FEF7A0FD02463B69AB
:10249C00D31A022B01D9032326E0064B1B6803F049
:1024AC000073002BF0D11EE07B68DB69012B07D198
:1024BC00012319E00010024000700040600042420D
:1024CC000B4B5B68FB60FB6803F480327B681B6A18
:1024DC009A4206D1FB6803F470127B685B6A9A42DD
:1024EC0001D0012300E0002318461837BD4680BDFB
:1024FC000010024080B584B000AF786039607B6812
:10250C00002B01D10123D0E06A4B1B6803F00703B9
:10251C003A689A4210D9674B1B6823F00702654949
:10252C003B6813430B60634B1B6803F007033A686B
:10253C009A4201D00123B8E07B681B6803F00203C8
:10254C00002B20D07B681B6803F00403002B05D004
:10255C00594B5B68584A43F4E06353607B681B68D3
:10256C0003F00803002B05D0534B5B68524A43F42D
:10257C0060535360504B5B6823F0F0027B689B68A0
:10258C004D4913434B607B681B6803F00103002B20
:10259C0040D07B685B68012B07D1474B1B6803F469
:1025AC000033002B15D101237FE07B685B68022B85
:1025BC0007D1414B1B6803F00073002B09D1012399
:1025CC0073E03D4B1B6803F00203002B01D1012388
:1025DC006BE0394B5B6823F003027B685B68364920
:1025EC0013434B60FEF7F2FCF8600AE0FEF7EEFCDA
:1025FC000246FB68D31A41F28832934201D9032375
:10260C0053E02D4B5B6803F00C027B685B689B000E
:10261C009A42EBD1274B1B6803F007033A689A42A6
:10262C0010D2244B1B6823F0070222493B6813434A
:10263C000B60204B1B6803F007033A689A4201D0E9
:10264C00012332E07B681B6803F00403002B08D0E5
:10265C00194B5B6823F4E0627B68DB681649134313
:10266C004B607B681B6803F00803002B09D0124BEE
:10267C005B6823F460527B681B69DB000E491343D3
:10268C004B6000F021F802460B4B5B681B0903F012
:10269C000F030A49CB5C22FA03F3094A1360094B76
:1026AC001B681846FEF750FC002318461037BD4631
:1026BC0080BD00BF0020024000100240E43800083A
:1026CC000C0000201000002080B487B000AF002365
:1026DC00FB600023BB6000237B6100237B60002335
:1026EC003B611E4B5B68FB60FB6803F00C03042B27
:1026FC0002D0082B03D027E0194B3B6127E0FB6885
:10270C009B0C03F00F03174AD35C7B60FB6803F44C
:10271C008033002B10D0114B5B685B0C03F0010372
:10272C00114AD35CBB607B680D4A03FB02F2BB68A9
:10273C00B2FBF3F37B6104E07B680C4A02FB03F30E
:10274C007B617B693B6102E0054B3B6100BF3B69F0
:10275C0018461C37BD4680BC704700BF00100240B5
:10276C0000127A00FC3800080C39000800093D0002
:10277C0080B400AF024B1B681846BD4680BC704746
:10278C000C00002080B500AFFFF7F2FF0246054BAE
:10279C005B681B0A03F007030349CB5C22FA03F3C3
:1027AC00184680BD00100240F438000880B500AF18
:1027BC00FFF7DEFF0246054B5B68DB0A03F00703FD
:1027CC000349CB5C22FA03F3184680BD001002408B
:1027DC00F438000880B485B000AF78600A4B1B68F1
:1027EC000A4AA2FB03235B0A7A6802FB03F3FB6031
:1027FC0000BFFB685A1EFA60002BF9D100BF00BF66
:10280C001437BD4680BC70470C000020D34D6210BD
:10281C0080B582B000AF78607B68002B01D10123BA
:10282C0042E07B6893F84130DBB2002B06D17B6829
:10283C00002283F840207868FEF700FB7B68242296
:10284C0083F841207B681B68DA687B681B6822F47C
:10285C000052DA60786800F0AFF97B681B681A697F
:10286C007B681B6822F490421A617B681B685A696A
:10287C007B681B6822F02A025A617B681B68DA6845
:10288C007B681B6842F40052DA607B6800225A6451
:10289C007B68202283F841207B68202283F8422029
:1028AC007B6800225A63002318460837BD4680BD5A
:1028BC0080B58AB002AFF860B9603B601346FB800C
:1028CC0000237B61FB6893F84130DBB2202B6DD188
:1028DC00BB68002B02D0FB88002B01D1012366E0E2
:1028EC00FB6800225A64FB68212283F84120FEF722
:1028FC006DFB7861FB68FA889A84FB68FA88DA8445
:10290C00FB689B68B3F5805F08D1FB681B69002BE3
:10291C0004D10023FB61BB68BB6103E0BB68FB61B6
:10292C000023BB612AE03B6800937B690022802175
:10293C00F86800F0D2F80346002B01D0032336E0F0
:10294C00FB69002B0BD1BB691B881A46FB681B6803
:10295C00C2F308025A60BB690233BB6107E0FB6932
:10296C001A78FB681B685A60FB690133FB61FB68D2
:10297C00DB8C9BB2013B9AB2FB68DA84FB68DB8C84
:10298C009BB2002BCFD13B6800937B690022402186
:10299C00F86800F0A2F80346002B01D0032306E0F0
:1029AC00FB68202283F84120002300E00223184614
:1029BC002037BD4680BD80B58AB002AFF860B960E3
:1029CC003B601346FB8000237B61FB6893F842302D
:1029DC00DBB2202B7CD1BB68002B02D0FB88002BF8
:1029EC0001D1012375E0FB6800225A64FB682222A6
:1029FC0083F84220FB6800221A63FEF7E7FA78613D
:102A0C00FB68FA889A85FB68FA88DA85FB689B680C
:102A1C00B3F5805F08D1FB681B69002B04D1002340
:102A2C00FB61BB68BB6103E0BB68FB610023BB615E
:102A3C0043E03B6800937B6900222021F86800F09A
:102A4C004CF80346002B01D0032342E0FB69002B1A
:102A5C000CD1FB681B685B689BB2C3F308039AB28A
:102A6C00BB691A80BB690233BB611FE0FB689B68C2
:102A7C00B3F5805F07D0FB689B68002B0AD1FB681D
:102A8C001B69002B06D1FB681B685B68DAB2FB691B
:102A9C001A7008E0FB681B685B68DBB203F07F030D
:102AAC00DAB2FB691A70FB690133FB61FB68DB8DE1
:102ABC009BB2013B9AB2FB68DA85FB68DB8D9BB25B
:102ACC00002BB6D1FB68202283F84220002300E0C3
:102ADC00022318462037BD4680BD80B590B000AFAC
:102AEC00F860B9603B601346FB7150E0BB6CB3F10E
:102AFC00FF3F4CD0BB6C002B07D0FEF767FA0246A9
:102B0C003B68D31ABA6C9A4241D2FB681B680C33EF
:102B1C00BB62BB6A53E8003F7B627B6A23F4D073D1
:102B2C00FB63FB681B680C33FA6B7A633B63396B92
:102B3C007A6B41E80023FB62FB6A002BE5D1FB6852
:102B4C001B6814337B617B6953E8003F3B613B6935
:102B5C0023F00103BB63FB681B681433BA6B3A6246
:102B6C00FB61F9693A6A41E80023BB61BB69002B40
:102B7C00E5D1FB68202283F84120FB68202283F8F2
:102B8C004220FB68002283F8402003230FE0FB68FF
:102B9C001B681A68BB681340BA689A420CBF0123C1
:102BAC000023DBB21A46FB799A429FD000231846C9
:102BBC004037BD4680BD000080B584B000AF786062
:102BCC007B681B681B6923F440517B68DA687B685F
:102BDC001B680A431A617B689A687B681B691A43F5
:102BEC007B685B691343BB607B681B68DB6823F401
:102BFC00B05323F00C037A681268B9680B43D360A6
:102C0C007B681B685B6923F440717B689A697B68FD
:102C1C001B680A435A617B681B682C4A934203D198
:102C2C00FFF7C4FDF86002E0FFF7ACFDF860FA684E
:102C3C0013469B0013449A001A447B685B689B0004
:102C4C00B2FBF3F3224AA2FB03235B091901FA68D6
:102C5C0013469B0013449A001A447B685B689B00E4
:102C6C00B2FBF3F21A4BA3FB02035B09642000FBDB
:102C7C0003F3D31A1B013233154AA2FB03235B095E
:102C8C0003F0F0031944FA6813469B0013449A00AE
:102C9C001A447B685B689B00B2FBF3F20C4BA3FB02
:102CAC0002035B09642000FB03F3D31A1B013233CC
:102CBC00074AA2FB03235B0903F00F027B681B6826
:102CCC000A449A6000BF1037BD4680BD00380140F1
:102CDC001F85EB5100B59BB0009104916FF0004142
:102CEC000591029105490391694600F095F900227E
:102CFC00009B1A701BB05DF804FB00BF0802FFFFBD
:102D0C0013460A46014602480068FFF7E3BF00BFBE
:102D1C006400002003460244934200D1704703F83C
:102D2C00011BF9E7014B1868704700BF64000020D5
:102D3C0070B500260C4D0D4C641BA410A64209D195
:102D4C0000F07AFC00260A4D0A4C641BA410A64223
:102D5C0005D170BD55F8043B98470136EEE755F8A0
:102D6C00043B98470136F2E744390008443900081F
:102D7C0044390008483900087047704738B5054693
:102D8C00002940D051F8043C0C1F002BB8BFE418AC
:102D9C0000F0DCF81C4A136833B9636014602846F1
:102DAC00BDE8384000F0D8B8A34208D920682118F3
:102DBC008B4201BF19685B6809182160EDE71A4660
:102DCC005B680BB1A342FAD911685018A0420BD121
:102DDC0020680144501883421160E0D118685B6888
:102DEC00084410605360DAE702D90C232B60D6E755
:102DFC00206821188B4201BF19685B680918216093
:102E0C0063605460CBE738BD0803002070B50E4EEC
:102E1C000C463168054611B900F0AAFB306021461A
:102E2C00284600F0A5FB431C0AD0C41C24F0030464
:102E3C00A04207D0211A284600F09AFB013001D19C
:102E4C004FF0FF34204670BD0C0300202DE9F843F1
:102E5C00CD1C25F0030508350C2D38BF0C25002D95
:102E6C00074601DBA94205D90C2300263B603046FE
:102E7C00BDE8F883DFF8D08000F068F8D8F80030AF
:102E8C001C465CBB29463846FFF7C0FF431C044672
:102E9C0055D1D8F800402646002E45D1002C48D0FC
:102EAC0023683146384604EB030900F061FB814589
:102EBC003FD1216838466D1A2946FFF7A7FF01302C
:102ECC0037D023682B442360D8F80030002B38D03F
:102EDC005A68A2422BD100225A600FE02268521B82
:102EEC001FD40B2A17D96119A342256018BF59604A
:102EFC00636808BFC8F8001062514B60384604F193
:102F0C000B0600F029F826F00706231DF21AAED0A6
:102F1C009B1BA350ABE7A3426268DDD1C8F800202D
:102F2C00ECE723466468ACE734467668B4E71346AE
:102F3C00CCE70C2338463B6000F00EF897E7256091
:102F4C00DCE75B60FFDE00BF080300200148FFF7F1
:102F5C0013BF00BF040300200148FFF70EBF00BFE2
:102F6C00040300202DE9F0471F468E688246BE42BE
:102F7C000C4690460B682CD88A8912F4906F26D098
:102F8C006569096905EB4505A3EB010905EBD575E9
:102F9C007B1C4B446D109D4238BF1D46530527D5F5
:102FAC002946FFF753FF064660B34A46216900F0F5
:102FBC00FDFAA38923F4906343F08003A381266177
:102FCC004E4426603E466561A5EB0905A560BE42F0
:102FDC0000D93E4632464146206800F0AFFA002048
:102FEC00A3689B1BA360236833442360BDE8F08770
:102FFC002A4600F0E9FA06460028E0D1504621693D
:10300C00FFF7BCFE0C23CAF80030A3894FF0FF3049
:10301C0043F04003A381E9E72DE9F04F98468B89F3
:10302C0007461B060D4614469DB00ED50B6963B9B9
:10303C004021FFF70BFF2860286120B90C233B606F
:10304C004FF0FF30D0E040236B6100230993202325
:10305C008DF8293030234FF00109CDF80C80DFF8C2
:10306C00A0818DF82A3023469A4613F8012B0AB119
:10307C00252AF9D1BAEB040B0BD05B462246294624
:10308C003846FFF76FFF013000F0A980099A5A44C7
:10309C0009929AF80030002B00F0A18000234FF029
:1030AC00FF32CDE905230AF1010A049307938DF849
:1030BC0053301A935446052214F8011B504800F063
:1030CC0067FA049AD8B9D00644BF20238DF8533040
:1030DC00110744BF2B238DF853309AF800302A2B5C
:1030EC0015D0544600204FF00A0C079A214611F8CF
:1030FC00013B303B092B4DD9B0B1079214E0A0EB4A
:10310C00080309FA03F31343A2460493D2E7039B83
:10311C00191D1B680391002BBBBF5B4242F00202DE
:10312C0007930793B8BF049223782E2B0CD16378A6
:10313C002A2B34D1039B02341A1D1B680392002BDB
:10314C00B8BF4FF0FF330593DFF8B8A00322504609
:10315C00217800F01DFA38B14022049BA0EB0A0044
:10316C00824013430134049314F8011B06222648B1
:10317C008DF8281000F00CFA002838D0234B1BBB1C
:10318C00039B073323F0070308330393099B334452
:10319C00099368E70C4601200CFB0232A6E70023DA
:1031AC004FF00A0C194601340593204610F8012BF8
:1031BC00303A092A03D9002BC6D00591C4E704463E
:1031CC0001230CFB0121F0E703AB00932A463846A0
:1031DC000F4B04A9AFF30080421C0646D6D1AB8935
:1031EC005B063FF52DAF09981DB0BDE8F08F03AB22
:1031FC0000932A463846064B04A900F07DF8EBE70D
:10320C000E390008143900081839000800000000B5
:10321C00712F00082DE9F047164699468A680B690C
:10322C0007469342B8BF1346336091F843200C46CF
:10323C00DDF820800AB1013333602368990642BF60
:10324C00336802333360256815F0060506D104F1A6
:10325C00190AE36832689B1AAB422BDC94F84320C2
:10326C00131E226818BF0123920630D449463846F3
:10327C0004F14302C047013023D02368226903F0D4
:10328C000603042B14BF002533684FF0000608BF5B
:10329C00E56804F11A0408BFED1A54F8123C08BF93
:1032AC0025EAE5759342C4BF9B1AED18B5421AD1B5
:1032BC00002008E00123524649463846C0470130F9
:1032CC0003D14FF0FF30BDE8F0870135C1E7302066
:1032DC00E11881F843005A1C94F84510224402333B
:1032EC0082F84310C2E70123224649463846C047BC
:1032FC000130E6D00136D9E72DE9FF470F7E914624
:10330C00782F80460C469A460C9D01F1430207D853
:10331C00622F0AD8002F00F0D580582F00F0C18002
:10332C0004F1420584F842703AE0A7F16303152BCF
:10333C00F6D801A151F823F09D330008B1330008F1
:10334C002D3300082D3300082D3300082D330008D1
:10335C00B13300082D3300082D3300082D3300083D
:10336C002D330008B7340008DD3300087134000831
:10337C002D3300082D330008D93400082D330008F4
:10338C00DD3300082D3300082D3300087934000894
:10339C002B681A1D1B682A6004F1420584F8423020
:1033AC000123A0E020682B68070603F104012960C3
:1033BC0001D51E6803E04606FBD5B3F90060002E6C
:1033CC0003DA2D23764284F843300A23594812E05D
:1033DC002B682068191D2960050601D51E6802E0BE
:1033EC004106FBD51E886F2F0CBF08230A235148BA
:1033FC00002184F843106568002DA8BF2168A560E2
:10340C00A4BF21F0040121600EB9002D4BD015464C
:10341C00B6FBF3F103FB1167C75D05F8017D374679
:10342C00BB420E46F4D9082B0BD12368DE0708D516
:10343C00236961689942DEBF302305F8013C05F130
:10344C00FF35521B22614B4621464046CDF800A069
:10345C0003AAFFF7DFFE01304AD14FF0FF3004B072
:10346C00BDE8F087236843F02003236078273248B7
:10347C0084F84570236829681F0651F8046B02D440
:10348C005F0648BFB6B2DF0748BF43F02003296090
:10349C0048BF23601EB9236823F020032360102348
:1034AC00A6E72448E4E71546BDE72B682668181DF7
:1034BC006169286035061B6801D5196002E0700649
:1034CC00FBD51980002315462361BCE72B6800212E
:1034DC001A1D2A601D686268284600F059F808B168
:1034EC00401B606063682361002384F84330AAE7C3
:1034FC002A46494640462369D0470130ADD023685F
:10350C009B0713D4E068039B9842B8BF1846A6E704
:10351C000123324649464046D04701309DD0013503
:10352C00E36803995B1AAB42F2DCEBE7002504F18C
:10353C001906F5E71F39000830390008884210B524
:10354C0001EB020402D98442234607D8431EA14250
:10355C0008D011F8012B03F8012FF8E701460244BB
:10356C008A4200D110BD13F8014D02F8014DF7E766
:10357C0038B50023054D044608462B60FDF7F8FBD3
:10358C00431C02D12B6803B1236038BD000300201B
:10359C00034610B5C9B202449342184601D100202B
:1035AC0003E0047801338C42F6D110BD0A449142F9
:1035BC0000F1FF3300D1704710B511F8014B914267
:1035CC0003F8014FF9D110BD2DE9F04180461446A6
:1035DC000E4621B91146BDE8F041FFF737BC2AB9B8
:1035EC00FFF7CCFB25462846BDE8F08100F01BF820
:1035FC008442074602D8B4EB500F12D821464046FD
:10360C00FFF724FC05460028EDD0BC42224631468B
:10361C0028BF3A46FFF7CAFF31464046FFF7AEFBDC
:10362C00E1E73546DFE751F8043C181F002BBCBF1F
:10363C000B58C01870470000F8B500BFF8BC08BCA8
:10364C009E467047F8B500BFF8BC08BC9E46704754
:10365C00426F6F746C6F6164657220737461727405
:10366C0065642E2E0D0A0000496E76616C6964202B
:10367C00636F6D6D656E6420636F64652072656346
:10368C0069657665642066726F6D20686F7374204F
:10369C002121200D0A2000005265616420626F6FA9
:1036AC00746C6F616465722076657273696F6E20DD
:1036BC000D0A2000435243206973207061737365B7
:1036CC00640D0A00426F6F746C6F616465722056F2
:1036DC0065722E2025642E25642E25640D0A0000AB
:1036EC00435243206973206661696C65640D0A005E
:1036FC00416C6C20737570706F7274656420636FAD
:10370C006D6D656E647320636F6465200D0A200017
:10371C0052656164204D435520636869702069646B
:10372C00656E74696669636174696F6E206E756D20
:10373C00626572200D0A2000526561642074686510
:10374C0020666C6173682070726F74656374696F46
:10375C006E206F7574206C6576656C200D0A2000E8
:10376C0043424C5F474F5F544F5F41444445525F67
:10377C00434D44200D0A200041646472657373202C
:10378C00766572696669636174696F6E20737563BF
:10379C0065737365640D0A004A756D7065642074F9
:1037AC006F203A2030782558200D0A004974207774
:1037BC00696C6C20657261736520696E20626F6F35
:1037CC00746C6F6164657220636F6465200D0A20F0
:1037DC00000000004974206973206F7665722074B4
:1037EC00686520666C6173682073697A650D0A20C0
:1037FC0000000000497420697320696E2072616EAC
:10380C006765200D0A2000004D61736520657261AB
:10381C007365200D0A200000506167652065726198
:10382C007365200D0A2000004D617365206572617F
:10383C007365206F7220736563746F72206572619B
:10384C007365206F662074686520757365722066D9
:10385C006C617368200D0A200000000053756365CD
:10386C00737366756C206572617365640D0A000074
:10387C00556E73756365737366756C2065726173D1
:10388C0065640D0A0000000057726974652064615C
:10389C00746120696E746F20646966666572656E0A
:1038AC0074206D656D6F7279200000004368616E45
:1038BC0067652074686520666C6173682070726F30
:1038CC0074656374696F6E206F7574206C657665B2
:1038DC006C200D0A20000000000000000000000019
:1038EC00010203040607080900000000010203049A
:1038FC0002030405060708090A0B0C0D0E0F101025
:10390C000102232D302B2000686C4C006566674546
:10391C00464700303132333435363738394142433B
:10392C0044454600303132333435363738396162EC
:08393C006364656600000000F1
:043944003101000845
:043948000D01000865
:10394C001011121314151617181920210024F40045
:10395C00100000000100000000000000C801002061
:10396C00300200209802002000000000000000003F
:10397C00000000000000000000000000000000003B
:10398C00000000000000000000000000000000002B
:10399C00000000000000000000000000000000001B
:0839AC000000000018000020DB
:0400000508000EDD04
:00000001FF
